:020000040804EE
:100000005024002009EA0408FDE80408FFE8040879
:1000100001E9040803E9040805E9040800000000F8
:1000200000000000000000000000000007E90408D4
:1000300009E90408000000000BE904080DE90408C0
:1000400025EA040829EA04082DEA040831EA04082C
:1000500035EA040839EA04083DEA040841EA0408DC
:1000600045EA040849EA04084DEA040851EA04088C
:1000700055EA040859EA04085DEA040861EA04083C
:1000800065EA040869EA04086DEA040871EA0408EC
:1000900075EA040879EA04087DEA040881EA04089C
:1000A00085EA040889EA04088DEA040891EA04084C
:1000B00095EA040899EA04089DEA0408A1EA0408FC
:1000C000A5EA0408A9EA0408ADEA0408B1EA0408AC
:1000D000B5EA0408B9EA0408BDEA0408C1EA04085C
:1000E000C5EA0408C9EA040800000000CDEA0408D3
:1000F000D1EA0408D5EA0408D9EA0408DDEA0408CC
:10010000E1EA0408E5EA0408E9EA0408EDEA04087B
:10011000F1EA0408F5EA0408F9EA0408FDEA04082B
:1001200001EB040805EB040809EB04080DEB0408D7
:1001300011EB040815EB040819EB04081DEB040887
:1001400021EB040825EB040800000000000000007B
:1001500029EB04082DEB040831EB040835EB040807
:1001600039EB04083DEB040841EB040845EB0408B7
:1001700049EB04084DEB040851EB040855EB040867
:1001800059EB04085DEB040861EB040865EB040817
:1001900069EB04086DEB040871EB040875EB0408C7
:1001A00079EB04087DEB040881EB040885EB040877
:1001B00089EB04088DEB040891EB040895EB040827
:1001C00099EB04089DEB0408A1EB0408A5EB0408D7
:1001D000A9EB0408ADEB0408B1EB0408B5EB040887
:1001E000B9EB0408BDEB0408C1EB0408C5EB040837
:1001F000C9EB0408CDEB0408D1EB0408D5EB0408E7
:10020000D9EB0408DDEB0408E1EB0408E5EB040896
:10021000E9EB0408EDEB0408F1EB0408F5EB040846
:10022000F9EB0408FDEB040801EC040805EC0408F4
:1002300009EC04080DEC040811EC040815EC0408A2
:1002400019EC04081DEC040821EC040825EC040852
:1002500029EC04082DEC040831EC040835EC040802
:1002600039EC04083DEC040841EC040845EC0408B2
:1002700049EC04084DEC040851EC040855EC040862
:1002800059EC04085DEC040861EC040865EC040812
:1002900069EC04086DEC0408000000000000000098
:1002A000000000000000000000000000000000004E
:1002B000000000000000000000000000000000003E
:1002C000000000000000000000000000000000002E
:1002D000000000000000000000000000000000001E
:1002E0000000000000000380000380000380000382
:1002F00080000380000380000380000380000380EF
:100300000001000001000000000000000003800068
:10031000038000000000000000000000000000005A
:1003200000000000000000000000000000000000CD
:10033000000E70000E70000E7000042000042000FB
:100340000420000420000000000000000000000065
:10035000000000000000000000000000000000009D
:10036000000000000000000000000000000000008D
:100370000000000000000660000660000660000645
:1003800060000660003FF8003FF8000660000CC007
:10039000003FF8003FF8000CC0000CC0000CC0008B
:1003A0000CC0000CC00000000000000000000000B5
:1003B000000000000000000000000001800001803B
:1003C0000007B0000FF0001870001870001C00004B
:1003D0000F800007E00000F0001830001C30001C07
:1003E00070001FE0001BC000018000018000018040
:1003F000000180000000000000000000000000007C
:100400000000000000000780000FC0001CE0001882
:1004100060001860001CE0000FF80007E0001FF00B
:100420000007380006180006180007380003F0001F
:1004300001E00000000000000000000000000000DB
:1004400000000000000000000000000000000000AC
:100450000000000003F00007F0000C60000C00003A
:100460000C00000600000700000F9C001DFC001897
:10047000F0001870000FFC0007DC00000000000016
:10048000000000000000000000000000000000006C
:100490000000000000000000000380000380000353
:1004A00080000100000100000100000100000000C8
:1004B000000000000000000000000000000000003C
:1004C000000000000000000000000000000000002C
:1004D0000000000000000000000000000000001804
:1004E0000000380000700000F00000E00000E000B4
:1004F00001C00001C00001C00001C00001C0000136
:10050000C00000E00000E000007000007000003853
:1005100000001800000000000000000000000000C3
:100520000000000000001800001C00000E00000E7B
:100530000000070000070000038000038000038024
:100540000003800003800003800007000007000014
:100550000F00000E00001C0000180000000000004A
:10056000000000000000000000000000000001800A
:10057000000180000180001DB8001FF80007E000A6
:1005800003C00003C0000660000660000000000019
:10059000000000000000000000000000000000005B
:1005A000000000000000000000000000000000004B
:1005B00000000000000000000000000001800001B9
:1005C00080000180000180000180003FFC003FFCB2
:1005D0000001800001800001800001800001800096
:1005E000000000000000000000000000000000000B
:1005F00000000000000000000000000000000000FB
:1006000000000000000000000000000000000000EA
:1006100000000000000000000000000000000000DA
:10062000000000E00000C00001C000018000018067
:1006300000030000030000000000000000000000B4
:1006400000000000000000000000000000000000AA
:1006500000000000000000000000001FF8001FF86C
:10066000000000000000000000000000000000008A
:10067000000000000000000000000000000000007A
:10068000000000000000000000000000000000006A
:10069000000000000000000000000000000000005A
:1006A000000000000000000000000000000000004A
:1006B000000003C00003C00003C0000000000000F1
:1006C000000000000000000000000000000000002A
:1006D0000018000018000038000030000070000012
:1006E000600000600000C00000C0000180000180C8
:1006F000000300000300000600000600000E0000DA
:100700000C00001C00001800001800000000000091
:10071000000000000000000000000000000003C016
:100720000007E0000C30000C30001818001818000A
:100730001818001818001818001818001818000CBD
:1007400030000C300007E00003C000000000000093
:100750000000000000000000000000000000000099
:100760000000000000000080000780001F80001DC6
:100770008000018000018000018000018000018074
:10078000000180000180000180000180001FF8004E
:100790001FF8000000000000000000000000000042
:1007A000000000000000000000000000000007C082
:1007B000001FF0003830003018003018000018001A
:1007C00000300000600001C0000380000600000C43
:1007D00000001800003FF8003FF800000000000093
:1007E0000000000000000000000000000000000009
:1007F00000000000000003C0000FE0000C700000CB
:10080000300000300000600003C00003E000007012
:10081000000018000018000018001838001FF00031
:100820000FC00000000000000000000000000000F9
:10083000000000000000000000000000000000E0D8
:100840000001E00001E000036000066000066000B7
:100850000C60000C60001860003060003FF8003F42
:10086000F80000600003F80003F80000000000003A
:100870000000000000000000000000000000000078
:100880000000000000001FF0001FF000180000181A
:1008900000001800001BC0001FF0001C30000018F2
:1008A000000018000018000018003030003FF00071
:1008B0000FC0000000000000000000000000000069
:1008C000000000000000000000000000000000F830
:1008D0000003F8000700000E00000C0000180000E4
:1008E0001BC0001FF0001C3000181800181800185A
:1008F00018000C38000FF00003E0000000000000BA
:1009000000000000000000000000000000000000E7
:100910000000000000001FF8001FF8001818001861
:1009200038000030000030000070000060000060FF
:100930000000E00000C00000C00001C00001800015
:100940000180000000000000000000000000000026
:10095000000000000000000000000000000007E0B0
:10096000000FF0001C38001818001818000C300098
:1009700007E00007E0000C300018180018180018F5
:1009800018001C38000FF00007E000000000000015
:100990000000000000000000000000000000000057
:1009A00000000000000007C0000FF0001C3000181D
:1009B00018001818001818000C38000FF80003D899
:1009C0000000180000300000700000E0001FC000B0
:1009D0001F000000000000000000000000000000F8
:1009E0000000000000000000000000000000000007
:1009F0000000000000000000000003C00003C00071
:100A000003C0000000000000000000000000000023
:100A1000000003C00003C00003C00000000000008D
:100A200000000000000000000000000000000000C6
:100A300000000000000000000000000000000000B6
:100A4000000000F00000F00000F0000000000000D6
:100A50000000000000000000E00001C00001800074
:100A60000180000300000200000000000000000000
:100A70000000000000000000000000000000000076
:100A800000000000001C00003C0000F00003C0005B
:100A90000F00003C0000F000003C00000F000003CD
:100AA000C00000F000003C00001C0000000000003E
:100AB0000000000000000000000000000000000036
:100AC0000000000000000000000000000000000026
:100AD00000000000007FFC007FFC00000000000020
:100AE000007FFC007FFC0000000000000000000010
:100AF00000000000000000000000000000000000F6
:100B000000000000000000000000000000000000E5
:100B1000000000007000007800001E000007800048
:100B200001E000007800001E0000780001E00007EE
:100B300080001E000078000070000000000000002F
:100B400000000000000000000000000000000000A5
:100B500000000000000000000007C0000FE00018C7
:100B6000700018300018300000700000E00003C072
:100B700000038000030000000000000000070000E8
:100B8000070000000000000000000000000000005E
:100B9000000000000000000000000000000003E072
:100BA0000007F0000E38000C180018780018F80044
:100BB00019D80019980019980019980018F8001809
:100BC00078001800000C00000E180007F80003E081
:100BD0000000000000000000000000000000000015
:100BE0000000000000000000001F80001FC0000186
:100BF000C0000360000360000630000630000C30C7
:100C0000000FF8001FF800180C00300C00FC7F00EB
:100C1000FC7F000000000000000000000000000059
:100C200000000000000000000000000000000000C4
:100C3000007FE0007FF00018380018180018180036
:100C40001838001FF0001FF800181C00180C0018BE
:100C50000C00180C007FF8007FF00000000000007E
:100C60000000000000000000000000000000000084
:100C700000000000000000000003EC000FFC001C5E
:100C80001C00180C00300C00300000300000300058
:100C900000300000300000180C001C1C000FF80091
:100CA00003F0000000000000000000000000000051
:100CB0000000000000000000000000000000000034
:100CC000007FC0007FF000183800181800180C00D2
:100CD000180C00180C00180C00180C00180C001848
:100CE00018001838007FF0007FE0000000000000CE
:100CF00000000000000000000000000000000000F4
:100D00000000000000000000007FF8007FF80018DD
:100D100018001818001998001980001F80001F8003
:100D2000001980001998001818001818007FF800A2
:100D30007FF800000000000000000000000000003C
:100D400000000000000000000000000000000000A3
:100D5000003FFC003FFC000C0C000C0C000CCC0015
:100D60000CC0000FC0000FC0000CC0000CC0000C75
:100D700000000C00003FC0003FC000000000000069
:100D80000000000000000000000000000000000063
:100D900000000000000000000003EC000FFC001C3D
:100DA0001C00180C00300C0030000030000030FE39
:100DB0000030FE00300C00380C001C1C000FFC0042
:100DC00003F0000000000000000000000000000030
:100DD0000000000000000000000000000000000013
:100DE000007E7E007E7E001818001818001818007B
:100DF0001818001FF8001FF800181800181800181D
:100E000018001818007E7E007E7E000000000000A2
:100E100000000000000000000000000000000000D2
:100E20000000000000000000001FF8001FF8000193
:100E300080000180000180000180000180000180AD
:100E4000000180000180000180000180001FF80087
:100E50001FF800000000000000000000000000007B
:100E60000000000000000000000000000000000082
:100E70000007FE0007FE00003000003000003000D8
:100E800000300000300030300030300030300030B2
:100E900030003060003FE0000F80000000000000E4
:100EA0000000000000000000000000000000000042
:100EB0000000000000000000007F3E007F3E0018A0
:100EC000300018600018C0001980001B80001FC08F
:100ED000001CE0001870001830001838007F1F0058
:100EE0007F1F000000000000000000000000000064
:100EF00000000000000000000000000000000000F2
:100F0000007F80007F80000C00000C00000C0000BF
:100F10000C00000C00000C00000C0C000C0C000C71
:100F20000C000C0C007FFC007FFC000000000000A7
:100F300000000000000000000000000000000000B1
:100F4000000000000000000000F00F00F81F003853
:100F50001C003C3C003C3C00366C00366C0033CC42
:100F60000033CC00318C00300C00300C00FE7F00D0
:100F7000FE7F0000000000000000000000000000F4
:100F80000000000000000000000000000000000061
:100F90000078FE0078FE001C18001E18001F1800C4
:100FA0001B18001B980019D80018D80018F8001852
:100FB00078001838007F18007F180000000000003B
:100FC0000000000000000000000000000000000021
:100FD00000000000000000000003C0000FF0001C33
:100FE0003800181800381C00300C00300C00300C91
:100FF00000300C00381C001818001C38000FF000DE
:1010000003C000000000000000000000000000001D
:1010100000000000000000000000000000000000D0
:10102000003FF0003FF8000C1C000C0C000C0C0002
:101030000C0C000C18000FF8000FE0000C00000C66
:1010400000000C00003FC0003FC000000000000096
:101050000000000000000000000000000000000090
:1010600000000000000000000003C0000FF0001CA2
:101070003800181800381C00300C00300C00300C00
:1010800000300C00381C001818001C38000FF0004D
:1010900007C00007CC000FFC000C38000000000067
:1010A0000000000000000000000000000000000040
:1010B000007FE0007FF000183800181800181800B2
:1010C0001838001FF0001FC00018E000187000184A
:1010D00030001838007F1E007F0E00000000000066
:1010E0000000000000000000000000000000000000
:1010F00000000000000000000007D8000FF8001CEE
:1011000038001818001818001E00000FC00003F067
:10111000000078001818001818001C38001FF00094
:101120001BE00000000000000000000000000000C4
:1011300000000000000000000000000000000000AF
:10114000003FFC003FFC00318C00318C00318C00F2
:10115000318C0001800001800001800001800001CD
:1011600080000180000FF0000FF000000000000080
:10117000000000000000000000000000000000006F
:101180000000000000000000007E7E007E7E00184F
:101190001800181800181800181800181800181847
:1011A000001818001818001818000C30000FF00074
:1011B00003C000000000000000000000000000006C
:1011C000000000000000000000000000000000001F
:1011D000007F7F007F7F00180C000C18000C1800A7
:1011E0000C180006300006300003600003600003A6
:1011F000600001C00001C00000800000000000008D
:1012000000000000000000000000000000000000DE
:10121000000000000000000000FE3F80FE3F803024
:10122000060030060030860019CC0019CC001B6C7B
:10123000001B6C001E7C000E38000E38000C1800DD
:101240000C1800000000000000000000000000007A
:10125000000000000000000000000000000000008E
:10126000007E7E007E7E001818000C3000066000B4
:1012700003C00001800001800003C0000660000C74
:1012800030001818007E7E007E7E00000000000006
:10129000000000000000000000000000000000004E
:1012A0000000000000000000007C7E007C7E001832
:1012B00018000C300006600006600003C0000180CA
:1012C000000180000180000180000180000FF0001B
:1012D0000FF000000000000000000000000000000F
:1012E00000000000000000000000000000000000FE
:1012F000001FF8001FF800181800183000186000D0
:1013000018C0000180000300000618000C18001827
:1013100018003018003FF8003FF8000000000000FF
:1013200000000000000000000000000000000000BD
:1013300000000000000001F00001F0000180000149
:101340008000018000018000018000018000018098
:101350000001800001800001800001800001800008
:1013600001800001800001F00001F0000000000099
:1013700000000000000000001800001800001C0021
:10138000000C00000E000006000006000003000034
:1013900003000001800001800000C00000C00000C8
:1013A000600000600000700000300000380000188D
:1013B0000000180000000000000000000000000015
:1013C0000000000000000F80000F8000018000017D
:1013D0008000018000018000018000018000018008
:1013E0000001800001800001800001800001800078
:1013F0000180000180000F80000F800000000000CD
:10140000000000000000000000000000800001C09B
:101410000003E0000770000630000C1800180C00F4
:1014200010040000000000000000000000000000A8
:1014300000000000000000000000000000000000AC
:10144000000000000000000000000000000000009C
:10145000000000000000000000000000000000008C
:10146000000000000000000000000000000000007C
:10147000000000000000000000000000000000006C
:10148000000000000000000000000000000000005C
:101490000000FFFF00FFFF000000000300000380CA
:1014A0000000E000006000000000000000000000FC
:1014B000000000000000000000000000000000002C
:1014C000000000000000000000000000000000001C
:1014D000000000000000000000000000000000000C
:1014E00000000000000000000000000000000000FC
:1014F00000000FC0001FE00000300000300007F0C7
:10150000001FF0003830003030003070001FFC0049
:101510000FBC000000000000000000000000000000
:101520000000000000000000000000000000780043
:10153000007800001800001800001BE0001FF800F1
:101540001C1800180C00180C00180C00180C0018BF
:101550000C001C18007FF8007BE000000000000079
:10156000000000000000000000000000000000007B
:10157000000000000000000000000000000000006B
:10158000000003EC000FFC001C1C00380C00300CA9
:1015900000300000300000380C001C1C000FF80068
:1015A00003F0000000000000000000000000000048
:1015B00000000000000000000000000000000078B3
:1015C0000000780000180000180007D8001FF8007D
:1015D000183800301800301800301800301800306B
:1015E00018001838001FFE0007DE00000000000091
:1015F00000000000000000000000000000000000EB
:1016000000000000000000000000000000000000DA
:10161000000007E0001FF800181800300C003FFC25
:10162000003FFC00300000300000180C001FFC00E0
:1016300007F00000000000000000000000000000B3
:10164000000000000000000000000000000001FC9D
:101650000003FC000600000600003FF8003FF80011
:101660000600000600000600000600000600000656
:1016700000000600003FF0003FF000000000000006
:10168000000000000000000000000000000000005A
:10169000000000000000000000000000000000004A
:1016A000000007DE001FFE00183800301800301858
:1016B000003018003018003018001838001FF800EB
:1016C00007D8000018000018000038000FF0000FC5
:1016D000C0000000000000000000000000007800D2
:1016E000007800001800001800001BE0001FF00048
:1016F0001C380018180018180018180018180018BE
:1017000018001818007E7E007E7E00000000000099
:1017100000000000000000000000000000000000C9
:1017200000000000000001800001800000000000B7
:1017300000001F80001F80000180000180000180E8
:10174000000180000180000180000180003FFC005A
:101750003FFC00000000000000000000000000004E
:10176000000000000000000000000000000000C0B9
:101770000000C0000000000000001FF0001FF0008B
:101780000030000030000030000030000030000069
:101790003000003000003000003000003000003029
:1017A000000070001FE0001F80000000000000002B
:1017B0000000000000003C00003C00000C00000C99
:1017C00000000CF8000CF8000CC0000D80000F8029
:1017D000000F00000F80000DC0000CE0003C7C00FA
:1017E0003C7C000000000000000000000000000041
:1017F00000000000000000000000000000001F804A
:10180000001F800001800001800001800001800035
:101810000180000180000180000180000180000142
:1018200080000180003FFC003FFC00000000000041
:1018300000000000000000000000000000000000A8
:101840000000000000000000000000000000000098
:101850000000F77800FFFC0039CC00318C00318C9F
:1018600000318C00318C00318C00318C00FDEF0098
:10187000FDEF00000000000000000000000000007C
:101880000000000000000000000000000000000058
:10189000000000000000000000007BE0007FF0007E
:1018A0001C3800181800181800181800181800180C
:1018B00018001818007E7E007E7E000000000000E8
:1018C0000000000000000000000000000000000018
:1018D0000000000000000000000000000000000008
:1018E000000003C0000FF0001C3800381C00300C52
:1018F00000300C00300C00381C001C38000FF000C9
:1019000003C0000000000000000000000000000014
:1019100000000000000000000000000000000000C7
:10192000000000000000000000007BE0007FF800E5
:101930001C1800180C00180C00180C00180C0018CB
:101940000C001C18001FF8001BE000180000180015
:10195000001800007F00007F000000000000000071
:101960000000000000000000000000000000000077
:10197000000007DE001FFE00183800301800301885
:10198000003018003018003018001838001FF80018
:1019900007D80000180000180000180000FE000022
:1019A000FE00000000000000000000000000000039
:1019B000000000000000000000003E78003EFC0037
:1019C00007CC000700000600000600000600000625
:1019D00000000600003FF0003FF0000000000000A3
:1019E00000000000000000000000000000000000F7
:1019F00000000000000000000000000000000000E7
:101A0000000007F8000FF8001818001818001F80D1
:101A1000000FF00000F8001818001838001FF00040
:101A20001FE00000000000000000000000000000B7
:101A300000000000000000000000000000000C009A
:101A4000000C00000C00000C00003FF0003FF00014
:101A50000C00000C00000C00000C00000C00000C3E
:101A600000000C1C0007FC0003F000000000000058
:101A70000000000000000000000000000000000066
:101A80000000000000000000000000000000000056
:101A900000007878007878001818001818001818D6
:101AA000001818001818001818001838000FFE0049
:101AB00007DE000000000000000000000000000041
:101AC0000000000000000000000000000000000016
:101AD000000000000000000000007C3E007C3E0092
:101AE0001818001818000C30000C300006600006B2
:101AF000600007E00003C00003C000000000000019
:101B000000000000000000000000000000000000D5
:101B100000000000000000000000000000000000C5
:101B20000000783C00783C0031180033980033986E
:101B3000001AB0001EF0001EF0001C60000C6000D7
:101B40000C60000000000000000000000000000029
:101B50000000000000000000000000000000000085
:101B6000000000000000000000003E7C003E7C0001
:101B70000C300006600003C00001800003C00006B6
:101B800060000C30003E7C003E7C00000000000045
:101B90000000000000000000000000000000000045
:101BA0000000000000000000000000000000000035
:101BB00000007E1F007E1F00180C000C18000C187F
:101BC0000006300006300003600003E00001C000A2
:101BD00000C0000180000180000300003FC0003F02
:101BE000C000000000000000000000000000000035
:101BF000000000000000000000001FF8001FF800B7
:101C000018300018600000C00001800003000006CA
:101C100018000C18001FF8001FF80000000000005A
:101C200000000000000000000000000000000000B4
:101C300000000000000000E00001E0000180000161
:101C4000800001800001800001800001800003808D
:101C50000007000003800001800001800001800077
:101C600001800001800001E00000E00000000000B1
:101C700000000000000000000000000000000180E3
:101C800000018000018000018000018000018000CF
:101C900001800001800001800001800001800001BE
:101CA000800001800001800001800001800001802F
:101CB00000018000000000000000000000000000A3
:101CC0000000000000000700000780000180000104
:101CD000800001800001800001800001800001C0BF
:101CE0000000E00001C000018000018000018000D0
:101CF0000180000180000780000700000000000054
:101D000000000000000000000000000000000000D3
:101D100000000000000000000000000000000000C3
:101D20000E00001F18003BB80031F00000E000007A
:101D300000000000000000000000000000000000A3
:101D40000000000000000000000000000000000093
:101D50000000000000000000000000000000000083
:101D60000000000000000000000000000000000073
:101D7000000000000000000000000700070007004E
:101D80000700070007000700020002000000000033
:101D90000700070000000000000000000000000035
:101DA000000000001CE01CE01CE008400840084067
:101DB0000000000000000000000000000000000023
:101DC00000000000000000000CC00CC00CC00CC0E3
:101DD0000CC03FF03FF00CC00CC03FF03FF00CC017
:101DE0000CC00CC00CC00CC00000000000000000C3
:101DF0000300030007E00FE0186018001F000FC089
:101E000000E0186018601FC01F800300030003007B
:101E1000000000000000000000001C002200220062
:101E200022001C6001E00F803C0031C00220022033
:101E3000022001C0000000000000000000000000BF
:101E400000000000000003E00FE00C000C000600A2
:101E50000F301FF019E018C01FF007B0000000009D
:101E6000000000000000000000000000038003806C
:101E700003800100010001000000000000000000DC
:101E80000000000000000000000000000000000052
:101E9000000000C000C00180018001800300030039
:101EA000030003000300030001800180018000C0E3
:101EB00000C000000000000000000C000C00060044
:101EC00006000600030003000300030003000300F4
:101ED0000600060006000C000C00000000000000D8
:101EE00000000300030003001B601FE00780078061
:101EF0000FC00CC000000000000000000000000047
:101F000000000000000000000000000000000300CE
:101F10000300030003003FF03FF003000300030051
:101F200003000000000000000000000000000000AE
:101F300000000000000000000000000000000000A1
:101F400000000000000003800300030006000600FC
:101F5000040000000000000000000000000000007D
:101F60000000000000003FE03FE000000000000033
:101F70000000000000000000000000000000000061
:101F80000000000000000000000000000000000051
:101F900000000000000003800380038000000000B8
:101FA00000000000000000000060006000C000C0F1
:101FB00000C00180018003000300060006000C0041
:101FC0000C000C00180018000000000000000000C9
:101FD00000000F801FC018C030603060306030607B
:101FE00030603060306018C01FC00F8000000000FB
:101FF0000000000000000000000003001F001F00A0
:1020000003000300030003000300030003000300B8
:102010001FE01FE0000000000000000000000000C2
:1020200000000F801FC038E03060006000C00180F9
:10203000030006000C0018003FE03FE00000000035
:10204000000000000000000000000F803FC030E0F2
:10205000006000E007C007C000E00060006060E0D2
:102060007FC03F8000000000000000000000000072
:10207000000001C003C003C006C00CC00CC018C0E3
:1020800030C03FE03FE000C003E003E0000000009C
:10209000000000000000000000001FC01FC018006A
:1020A00018001F801FC018E000600060006030E072
:1020B0003FC01F8000000000000000000000000082
:1020C000000003E00FE01E001800380037803FC01A
:1020D00038E03060306018E01FC00780000000006A
:1020E000000000000000000000003FE03FE0306022
:1020F000006000C000C000C00180018001800300BA
:1021000003000300000000000000000000000000C9
:1021100000000F801FC038E0306038E01FC01FC0D3
:1021200038E03060306038E01FC00F8000000000F1
:10213000000000000000000000000F001FC038C0B9
:102140003060306038E01FE00F6000E000C003C086
:102150003F803E0000000000000000000000000082
:1021600000000000000000000000038003800380E6
:1021700000000000000003800380038000000000D6
:10218000000000000000000000000000000000004F
:10219000000001C001C001C0000000000000038079
:1021A000030006000600040000000000000000001C
:1021B000000000000000003000F003C007001C0019
:1021C00078001C00070003C000F000300000000091
:1021D00000000000000000000000000000000000FF
:1021E00000007FF07FF0000000007FF07FF0000033
:1021F00000000000000000000000000000000000DF
:1022000000000000000030003C000F00038000E0F0
:10221000007800E003800F003C0030000000000068
:102220000000000000000000000000000F801FC040
:1022300018601860006001C0038003000000000007
:102240000700070000000000000000000000000080
:10225000000003800C8008401040104011C0124064
:102260001240124011C01000080008400780000012
:102270000000000000000000000000001F801F8020
:10228000038006C006C00CC00C601FE01FE03030A9
:10229000787878780000000000000000000000005E
:1022A000000000003F803FC01860186018E01FC0A9
:1022B0001FE01870183018303FF03FE000000000B9
:1022C00000000000000000000000000007B00FF058
:1022D0001C703830300030003000300038301C7056
:1022E0000FE007C000000000000000000000000038
:1022F000000000007F807FC030E030703030303030
:1023000030303030307030E07FC07F80000000001F
:102310000000000000000000000000003FF03FF05F
:102320001830183019801F801F801980183018301D
:102330003FF03FF00000000000000000000000003F
:10234000000000003FF03FF01830183019801F8067
:102350001F801980180018003F003F000000000097
:1023600000000000000000000000000007B01FF0A7
:10237000187030303000300031F831F8303018301B
:102380001FF007C000000000000000000000000077
:10239000000000003CF03CF01860186018601FE07E
:1023A0001FE01860186018603CF03CF0000000006E
:1023B0000000000000000000000000001FE01FE01F
:1023C00003000300030003000300030003000300F5
:1023D0001FE01FE0000000000000000000000000FF
:1023E0000000000003F803F8006000600060006077
:1023F00030603060306030E03FC00F80000000008F
:102400000000000000000000000000003EF83EF860
:1024100018E019801B001F001D8018C018C018602C
:102420003E783E3800000000000000000000000080
:10243000000000003F003F000C000C000C000C00EE
:102440000C000C300C300C303FF03FF0000000006E
:10245000000000000000000000000000787878789C
:1024600038703CF034B037B037B0333033303030C0
:102470007CF87CF800000000000000000000000074
:102480000000000039F03DF01C601E601E601B6003
:102490001B6019E019E018E03EE03E60000000001B
:1024A00000000000000000000000000007800FC0D6
:1024B0001CE03870303030303030303038701CE054
:1024C0000FC00780000000000000000000000000B6
:1024D000000000003FC03FE018701830183018703E
:1024E0001FE01FC0180018003F003F000000000060
:1024F00000000000000000000000000007800FC086
:102500001CE03870303030303030303038701CE003
:102510000FC0078007B00FF00CE0000000000000C3
:10252000000000003FC03FE01870183018701FE036
:102530001FC018E0186018703E383E1800000000F8
:102540000000000000000000000000000FB01FF0BD
:102550003870303038001F8007E00070303038703D
:102560003FE037C000000000000000000000000055
:10257000000000003FF03FF03330333033300300D1
:1025800003000300030003000FC00FC000000000A1
:102590000000000000000000000000003CF03CF0E3
:1025A00018601860186018601860186018601CE0E7
:1025B0000FC00780000000000000000000000000C5
:1025C0000000000078F078F03060306018C018C06B
:1025D0000D800D800D80070007000700000000003F
:1025E0000000000000000000000000007C7C7C7CFB
:1025F000301833983398339836D816D01C701C7026
:102600001C701830000000000000000000000000F6
:102610000000000078F078F0306018C00D800700EE
:1026200007000D8018C0306078F078F000000000DE
:102630000000000000000000000000003CF03CF042
:1026400018600CC00780078003000300030003002C
:102650000FC00FC0000000000000000000000000DC
:10266000000000001FE01FE0186018C00180030098
:10267000030006000C6018601FE01FE0000000006F
:102680000000000000000000000003C003C00300C1
:102690000300030003000300030003000300030022
:1026A00003000300030003C003C00000000000009B
:1026B000180018000C000C000C00060006000300B7
:1026C00003000180018000C000C000C00060006005
:1026D000000000000000000000000F000F000300D9
:1026E00003000300030003000300030003000300D2
:1026F0000300030003000F000F00000000000000B3
:102700000000020007000D8018C03060202000008B
:1027100000000000000000000000000000000000B9
:1027200000000000000000000000000000000000A9
:102730000000000000000000000000000000000099
:10274000000000000000000000000000FFFCFFFC93
:1027500000000400030000800000000000000000F2
:102760000000000000000000000000000000000069
:102770000000000000000000000000000000000059
:1027800000000FC01FE000600FE01FE0386030E085
:102790003FF01F700000000000000000000000007B
:1027A0000000700070003000300037803FE038607B
:1027B00030303030303038607FE07780000000000B
:1027C0000000000000000000000000000000000009
:1027D000000007B01FF018303030300030003830C3
:1027E0001FF00FC00000000000000000000000000B
:1027F0000000007000700030003007B01FF018704B
:1028000030303030303038701FF807B8000000002A
:1028100000000000000000000000000000000000B8
:10282000000007801FE018603FF03FF030001830D4
:102830001FF007C0000000000000000000000000C2
:10284000000003F007F0060006001FE01FE006008E
:1028500006000600060006001FE01FE00000000062
:102860000000000000000000000000000000000068
:10287000000007B81FF81870303030303030187052
:102880001FF007B0003000700FE00FC00000000024
:10289000000038003800180018001BC01FE01C6042
:1028A00018601860186018603CF03CF000000000F0
:1028B0000000000000000000000003000300000012
:1028C00000001F001F0003000300030003000300BB
:1028D0001FE01FE0000000000000000000000000FA
:1028E000000003000300000000001FC01FC000C064
:1028F00000C000C000C000C000C000C000C001C0D7
:102900003F803F0000000000000038003800180041
:1029100018001BE01BE01B001E001E001B0019809E
:1029200039F039F000000000000000000000000055
:1029300000001F001F00030003000300030003004A
:1029400003000300030003001FE01FE0000000007D
:102950000000000000000000000000000000000077
:1029600000007EE07FF033303330333033303330AB
:102970007BB87BB8000000000000000000000000F1
:10298000000000000000000000003BC03FE01C60B1
:1029900018601860186018603CF03CF000000000FF
:1029A0000000000000000000000000000000000027
:1029B000000007801FE01860303030303030186081
:1029C0001FE0078000000000000000000000000081
:1029D0000000000000000000000077807FE0386009
:1029E00030303030303038603FE0378030003000F9
:1029F0007C007C00000000000000000000000000DF
:102A0000000007B81FF818703030303030301870C0
:102A10001FF007B00030003000F800F800000000A0
:102A2000000000000000000000003CE03DF00F301E
:102A30000E000C000C000C003FC03FC00000000066
:102A40000000000000000000000000000000000086
:102A5000000007E01FE018601E000FC001E01860D2
:102A60001FE01F80000000000000000000000000C8
:102A7000000000000C000C000C003FE03FE00C00E8
:102A80000C000C000C000C300FF007C00000000020
:102A90000000000000000000000000000000000036
:102AA000000038E038E0186018601860186018E01E
:102AB0001FF00F7000000000000000000000000088
:102AC0000000000000000000000078F078F03060A6
:102AD00018C018C00D800D8007000700000000001E
:102AE00000000000000000000000000000000000E6
:102AF000000078F078F03260326037E01DC01DC011
:102B000018C018C000000000000000000000000015
:102B1000000000000000000000003CF03CF00CC091
:102B20000780030007800CC03CF03CF00000000070
:102B30000000000000000000000000000000000095
:102B4000000078F078F0306018C018C00D800F8059
:102B50000700060006000C007F007F000000000058
:102B6000000000000000000000001FE01FE018C08F
:102B70000180030006000C601FE01FE00000000061
:102B80000000000000000000000001C003C00300BE
:102B9000030003000300030007000E00070003000A
:102BA00003000300030003C001C000000000000098
:102BB0000000030003000300030003000300030000
:102BC00003000300030003000300030003000300ED
:102BD000030000000000000000001C001E000600B2
:102BE0000600060006000600070003800700060036
:102BF0000600060006001E001C0000000000000089
:102C00000000000000000000000000000E003F3047
:102C100033F001E0000000000000000000000000B0
:102C200000000000000000000000000000000000A4
:102C30000000000000101010101000001000000034
:102C4000006C484800000000000000000014142838
:102C50007C287C28505000000010384040384870D4
:102C600010100000002050200C7008140800000014
:102C700000000018202054483400000000101010FC
:102C800010000000000000000008081010101010D4
:102C90001008080000202010101010101020200034
:102CA00000107C1028280000000000000000101018
:102CB00010FE1010100000000000000000000018BE
:102CC0001030200000000000007C00000000000028
:102CD0000000000000000030300000000004040884
:102CE000081010202040000000384444444444446C
:102CF0003800000000301010101010107C00000090
:102D000000384404081020447C00000000384404CB
:102D10001804044438000000000C141424447E04F9
:102D20000E000000003C202038040444380000005D
:102D3000001C20407844444438000000007C4404D7
:102D40000808081010000000003844443844444487
:102D50003800000000384444443C0408700000007F
:102D6000000000303000003030000000000000188B
:102D7000180000183020000000000C106080601067
:102D80000C000000000000007C007C00000000003F
:102D90000000C02018041820C00000000000182403
:102DA00004081000300000003844444C54544C4097
:102DB000443800000030102828287C44EE00000031
:102DC00000F8444478444444F8000000003C444087
:102DD000404040443800000000F048444444444827
:102DE000F000000000FC445070504044FC00000023
:102DF000007E22283828202070000000003C44403B
:102E0000404E44443800000000EE44447C444444B6
:102E1000EE000000007C1010101010107C0000006C
:102E2000003C0808084848483000000000EE4448CC
:102E300050704844E6000000007020202020242428
:102E40007C00000000EE6C6C54544444EE00000022
:102E500000EE64645454544CEC00000000384444C8
:102E600044444444380000000078242424382020BE
:102E7000700000000038444444444444381C0000BE
:102E800000F8444444784844E200000000344C40D8
:102E9000380404645800000000FE92101010101056
:102EA0003800000000EE444444444444380000002C
:102EB00000EE4444282828101000000000EE44448E
:102EC000545454542800000000C6442810102844CC
:102ED000C600000000EE4428281010103800000042
:102EE000007C4408101020447C00000000382020A2
:102EF0002020202020203800004020202010100812
:102F00000808000000380808080808080808380001
:102F10000010102844000000000000000000000025
:102F200000000000000000FE00100800000000008B
:102F30000000000000000038443C44443E00000013
:102F400000C0405864444444F80000000000003CC5
:102F50004440404438000000000C04344C444444D5
:102F60003E00000000000038447C40403C0000006F
:102F7000001C207C202020207C0000000000003667
:102F80004C4444443C04380000C040586444444429
:102F9000EE00000000100070101010107C00000007
:102FA00000100078080808080808700000C0405C9D
:102FB00048705048DC000000003010101010101055
:102FC0007C000000000000E854545454FE0000004F
:102FD000000000D864444444EE00000000000038C3
:102FE0004444444438000000000000D86444444491
:102FF0007840E000000000364C4444443C040E009D
:103000000000006C302020207C0000000000003C0C
:1030100044380444780000000000207C2020202256
:103020001C000000000000CC4444444C360000006A
:10303000000000EE4444282810000000000000EECC
:103040004454545428000000000000CC483030485C
:10305000CC000000000000EE442428181010780076
:103060000000007C481020447C0000000008101084
:103070001010201010100800001010101010101068
:103080001010000000201010101008101010200068
:103090000000000000245800000000002DE9F0436B
:1030A00081B0044620680026B046084D000121D5B5
:1030B000606E68B1B0F5801F15D0B0F5001F00F04C
:1030C0009680B0F5401F07D012E000BF00440258C0
:1030D000E86A40F40030E862286D616E20F4401028
:1030E0000843286506E0A86A00F0030003281ED103
:1030F0000126B0462068C00540F1E680606D0428D6
:1031000000F2E080DFE810F00500D900610109005D
:103110000900E86A40F40030E862300040F0D380F3
:10312000286D616DC00841EAC0002865CCE02868C0
:1031300020F08060286002F06BFA074628680001E2
:1031400006D502F065FAC01B0328F7D30326D0E7A3
:10315000A86A616820F47C3040EA0130A862E16826
:10316000A068491E490201F47E41401EC0F30800D8
:1031700008432169491E090401F4FE0108436169FD
:10318000491E090601F0FE410843A863E86AA169E7
:1031900020F0C0000843E862E86AE16920F02000FE
:1031A0000843E862E86A20F01000E862E86B216AF0
:1031B0006FF3CF0040EAC100E863E86A40F0100016
:1031C000E862E86A40F40010E862286840F0806035
:1031D000286002F01DFA0746286800013FF57CAF21
:1031E00002F016FAC01B0328F6D3032681E7A86A6B
:1031F00000F0030003283FF47BAF286820F08050E4
:10320000286002F005FA07462868800006D502F01B
:10321000FFF9C01B0328F7D303266AE7A86A616A8F
:1032200020F07C7040EA0150A862E16AA06A491E61
:10323000490201F47E41401EC0F308000843216B9F
:10324000491E090401F4FE010843616B491E090689
:1032500001F0FE4108432864E86AA16B20F4406055
:103260000843E862E86AE16B20F400700843E86212
:10327000E86A20F48070E862686C216C6FF3CF001C
:1032800040EAC1006864E86A40F48070E862E86A75
:1032900040F08070E862286840F08050286002F0BA
:1032A000B7F90746286880003FF516AF02F0B0F97D
:1032B000C01B0328F6D303261BE7A86A00F003000F
:1032C000032821D10126B0462068800540F1E9801D
:1032D000A06D58B1402800F0DD80802800F06781A3
:1032E000C02818BFB0F5807F04D0D8E0E86A40F469
:1032F0000030E862300040F0D380286DA16D20F4EA
:10330000E07008432865CCE0286820F080602860E1
:1033100002F07EF906462868000106D502F078F929
:10332000801B0328F7D30326CDE7A86A616820F441
:103330007C3040EA0130A862E168A068491E490279
:1033400001F47E41401EC0F3080008432169491E74
:10335000090401F4FE0108436169491E090601F0F0
:10336000FE410843A863E86AA16920F0C000084351
:10337000E862E86AE16920F020000843E862E86A50
:1033800020F01000E862E86B216A6FF3CF0040EA9A
:10339000C100E863E86A40F01000E862E86A40F4BF
:1033A0000020E862286840F08060286002F030F970
:1033B00006462868000106D402F02AF9801B03287B
:1033C000F7D303267FE70026AAE6A86A00F00300E9
:1033D00003283FF477AF286820F08050286002F07F
:1033E00017F906462868800006D502F011F9801BFF
:1033F0000328F7D3032666E7A86A616A20F07C7089
:1034000040EA0150A862E16AA06A491E490201F43B
:103410007E41401EC0F308000843216B491E090489
:1034200001F4FE010843616B491E090601F0FE41EB
:1034300008432864E86AA16B20F440600843E8620E
:10344000E86AE16B20F400700843E862E86A20F45F
:103450008070E862686C216C6FF3CF0040EAC100B5
:103460006864E86A40F48070E862E86A40F48000CA
:10347000E862286840F08050286002F0C9F80646EB
:10348000286880009FD402F0C3F8801B0328F7D37C
:10349000032618E7A86A00F00300032826D10126B6
:1034A000B0462068400540F1EE80D4F8A40070B129
:1034B000B0F5001F00F0E080B0F5800F00F06981EA
:1034C000B0F5C00F18BFB0F5000F04D0D9E0E86A1E
:1034D00040F40030E862300040F0D480A86DD4F8A9
:1034E000A41020F460000843A865CCE0286820F010
:1034F0008060286002F08CF806462868000106D536
:1035000002F086F8801B0328F7D30326C8E7A86AD1
:10351000616820F47C3040EA0130A862E168A0686C
:10352000491E490201F47E41401EC0F308000843D1
:103530002169491E090401F4FE0108436169491E1D
:10354000090601F0FE410843A863E86AA16920F07A
:10355000C0000843E862E86AE16920F020000843FF
:10356000E862E86A20F01000E862E86B216A6FF315
:10357000CF0040EAC100E863E86A40F01000E8626A
:10358000E86A40F40020E862286840F08060286023
:1035900002F03EF806462868000106D402F038F82A
:1035A000801B0328F7D303267AE70026A5E6A86A3E
:1035B00000F0030003283FF472AF286820F0805029
:1035C000286002F025F806462868800006D502F03B
:1035D0001FF8801B0328F7D3032661E7A86A616AF6
:1035E00020F07C7040EA0150A862E16AA06A491E9E
:1035F000490201F47E41401EC0F308000843216BDC
:10360000491E090401F4FE010843616B491E0906C5
:1036100001F0FE4108432864E86AA16B20F4406091
:103620000843E862E86AE16B20F400700843E8624E
:10363000E86A20F48070E862686C216C6FF3CF0058
:1036400040EAC1006864E86A40F48070E862E86AB1
:1036500040F48000E862286840F08050286001F063
:10366000D7FF0646286880009FD401F0D1FF801B59
:103670000328F7D3032613E7A86A00F00300032802
:1036800026D10126B0462068000540F1EE80D4F82E
:10369000A80070B1B0F1807F00F0E080B0F1007F51
:1036A00000F06081B0F1407F18BFB0F1806F04D0AE
:1036B000D9E0E86A40F40030E862300040F0D4809D
:1036C000A86DD4F8A81020F0E0600843A865CCE00D
:1036D000286820F08060286001F09AFF064628687C
:1036E000000106D501F094FF801B0328F7D30326C1
:1036F000C8E7A86A616820F47C3040EA0130A8621B
:10370000E168A068491E490201F47E41401EC0F3F1
:10371000080008432169491E090401F4FE01084319
:103720006169491E090601F0FE410843A863E86A81
:10373000A16920F0C0000843E862E86AE16920F06E
:1037400020000843E862E86A20F01000E862E86BB5
:10375000216A6FF3CF0040EAC100E863E86A40F0F5
:103760001000E862E86A40F40020E862286840F04F
:103770008060286001F04CFF06462868000106D4EE
:1037800001F046FF801B0328F7D303267AE70026C3
:10379000A4E6A86A00F0030003283FF472AF28688B
:1037A00020F08050286001F033FF06462868800032
:1037B00006D501F02DFF801B0328F7D3032661E710
:1037C000A86A616A20F07C7040EA0150A862E16A50
:1037D000A06A491E490201F47E41401EC0F3080060
:1037E0000843216B491E090401F4FE010843616B83
:1037F000491E090601F0FE4108432864E86AA16BEE
:1038000020F440600843E862E86AE16B20F400704D
:103810000843E862E86A20F48070E862686C216C12
:103820006FF3CF0040EAC1006864E86A40F480703A
:10383000E862E86A40F48000E862286840F080505E
:10384000286001F0E5FE0646286880009FD401F05C
:10385000DFFE801B0328F7D3032613E7A86A00F0D6
:10386000030003281DD10126B0462068800140F1E5
:10387000E580A06C58B1102805D0202800F0D78032
:10388000302804D0D8E0E86A40F40030E862300024
:1038900040F0D380E86CA16C20F030000843E8646D
:1038A000CCE0286820F08060286001F0B1FE064678
:1038B0002868000106D501F0ABFE801B0328F7D372
:1038C0000326D1E7A86A616820F47C3040EA013021
:1038D000A862E168A068491E490201F47E41401EC9
:1038E000C0F3080008432169491E090401F4FE01E0
:1038F00008436169491E090601F0FE410843A863B7
:10390000E86AA16920F0C0000843E862E86AE1695A
:1039100020F020000843E862E86A20F01000E86226
:10392000E86B216A6FF3CF0040EAC100E863E86A00
:1039300040F01000E862E86A40F40020E86228687D
:1039400040F08060286001F063FE064628680001B0
:1039500006D401F05DFE801B0328F7D3032683E71E
:103960000026ADE6A86A00F0030003283FF47BAF11
:10397000286820F08050286001F04AFE064628683A
:10398000800006D501F044FE801B0328F7D30326F0
:103990006AE7A86A616A20F07C7040EA0150A86278
:1039A000E16AA06A491E490201F47E41401EC0F34B
:1039B00008000843216B491E090401F4FE01084375
:1039C000616B491E090601F0FE4108432864E86A5C
:1039D000A16B20F440600843E862E86AE16B20F4E0
:1039E00000700843E862E86A20F48070E862686C5E
:1039F000216C6FF3CF0040EAC1006864E86A40F4CC
:103A00008070E862E86A40F48000E862286840F06C
:103A10008050286001F0FCFD0646286880009FD495
:103A200001F0F6FD801B0328F7D303261CE7A86AE4
:103A300000F00300032822D10126B0462068C0040C
:103A400040F18580E06D68B1B0F5805F78D0B0F569
:103A5000005F00F03A81B0F5405F18BFB0F5804FCD
:103A600004D072E0E86A40F40030E86230006DD1C2
:103A7000286DE16D20F4E0400843286567E0286880
:103A800020F08060286001F0C3FD06462868000130
:103A900006D501F0BDFD801B0328F7D30326CCE734
:103AA000A86A616820F47C3040EA0130A862E168CD
:103AB000A068491E490201F47E41401EC0F308007F
:103AC00008432169491E090401F4FE0108436169A4
:103AD000491E090601F0FE410843A863E86AA1698E
:103AE00020F0C0000843E862E86AE16920F02000A5
:103AF0000843E862E86A20F01000E862E86B216A97
:103B00006FF3CF0040EAC100E863E86A40F01000BC
:103B1000E862E86A40F40010E862286840F08060DB
:103B2000286001F075FD06462868000106D401F002
:103B30006FFD801B0328F7D303267EE70026A9E646
:103B4000A86A00F0030003285ED10126B046206871
:103B500080041CD5206E002800F0E281B0F5803F83
:103B60000DD0B0F5003F00F07681B0F5403F1CBFAE
:103B7000B0F5802FB0F5A02F00F0D28105E0A86A43
:103B800000F00300032840F005810126B0462068BC
:103B900040041DD5D4F8AC00002800F09182B0F1AB
:103BA000805F0DD0B0F1005F00F02582B0F1405F82
:103BB0001CBFB0F1804FB0F1A04F00F0818205E052
:103BC000A86A00F00300032840F0B4810126B04643
:103BD0002068000440F18682E06E58B1B0F1805F49
:103BE00004D0B0F1005F00F0768279E2E86A40F438
:103BF0000030E862300040F07482286DE16E20F001
:103C00004050084328656DE2286820F080602860F5
:103C100001F0FEFC06462868000106D501F0F8FC1C
:103C2000801B0328F7D3032690E7A86A616820F475
:103C30007C3040EA0130A862E168A068491E490270
:103C400001F47E41401EC0F3080008432169491E6B
:103C5000090401F4FE0108436169491E090601F0E7
:103C6000FE410843A863E86AA16920F0C000084348
:103C7000E862E86AE16920F020000843E862E86A47
:103C800020F01000E862E86B216A6FF3CF0040EA91
:103C9000C100E863E86A40F01000E862E86A40F4B6
:103CA0000020E862286840F08060286001F0B0FCE5
:103CB00006462868000106D401F0AAFC801B0328F0
:103CC000F7D3032642E70026D2E6A86A00F00300F5
:103CD00003283FF43AAF286820F08050286001F0B4
:103CE00097FC06462868800006D501F091FC801BF1
:103CF0000328F7D3032629E7A86A616A20F07C70BD
:103D000040EA0150A862E16AA06A491E490201F432
:103D10007E41401EC0F308000843216B491E090480
:103D200001F4FE010843616B491E090601F0FE41E2
:103D300008432864E86AA16B20F440600843E86205
:103D4000E86AE16B20F400700843E862E86A20F456
:103D50008070E862686C216C6FF3CF0040EAC100AC
:103D60006864E86A40F48070E862E86A40F48000C1
:103D7000E862286840F08050286001F049FC06465F
:103D8000286880009FD401F043FC801B0328F7D3F0
:103D90000326DBE6286820F08060286001F038FC0C
:103DA00006462868000106D501F032FC801B032876
:103DB000F7D30326EAE6A86A616820F47C3040EA7B
:103DC0000130A862E168A068491E490201F47E4101
:103DD000401EC0F3080008432169491E090401F48C
:103DE000FE0108436169491E090601F0FE410843CE
:103DF000A863E86AA16920F0C0000843E862E86AA5
:103E0000E16920F020000843E862E86A20F0100031
:103E1000E862E86B216A6FF3CF0040EAC100E86313
:103E2000E86A40F01000E862E86A40F48010E86256
:103E3000286840F08060286001F0EAFB06462868A8
:103E4000000106D401F0E4FB801B0328F7D303260E
:103E50009CE6002667E0A86A00F0030003283FF410
:103E600094AE286820F08050286001F0D1FB06460F
:103E70002868800006D501F0CBFB801B0328F7D310
:103E8000032683E6A86A616A20F07C7040EA01504C
:103E9000A862E16AA06A491E490201F47E41401EFF
:103EA000C0F308000843216B491E090401F4FE0118
:103EB0000843616B491E090601F0FE41084328646E
:103EC000E86AA16B20F440600843E862E86AE16BAD
:103ED00020F400700843E862E86A20F48070E86229
:103EE000686C216C6FF3CF0040EAC1006864E86A37
:103EF00040F48070E862E86A40F40000E8622868F4
:103F000040F08050286001F083FB0646286880005E
:103F10009FD401F07DFB801B0328F7D3032635E6F1
:103F200030007FF433AE286D216E20F4E02008438A
:103F300028652CE6286820F08060286001F068FB86
:103F400006462868000106D501F062FB801B0328A5
:103F5000F7D303263BE6A86A616820F47C3040EA88
:103F60000130A862E168A068491E490201F47E415F
:103F7000401EC0F3080008432169491E090401F4EA
:103F8000FE0108436169491E090601F0FE4108432C
:103F9000A863E86AA16920F0C0000843E862E86A03
:103FA000E16920F020000843E862E86A20F0100090
:103FB000E862E86B216A6FF3CF0040EAC100E86372
:103FC000E86A40F01000E862E86A40F48010E862B5
:103FD000286840F08060286001F01AFB06462868D7
:103FE000000106D401F014FB801B0328F7D303263D
:103FF000EDE5002667E0A86A00F0030003283FF41F
:10400000E5AD286820F08050286001F001FB0646ED
:104010002868800006D501F0FBFA801B0328F7D33F
:104020000326D4E5A86A616A20F07C7040EA01505A
:10403000A862E16AA06A491E490201F47E41401E5D
:10404000C0F308000843216B491E090401F4FE0176
:104050000843616B491E090601F0FE4108432864CC
:10406000E86AA16B20F440600843E862E86AE16B0B
:1040700020F400700843E862E86A20F48070E86287
:10408000686C216C6FF3CF0040EAC1006864E86A95
:1040900040F48070E862E86A40F40000E862286852
:1040A00040F08050286001F0B3FA0646286880008E
:1040B0009FD401F0ADFA801B0328F7D3032686E5D1
:1040C00030007FF484ADA86DD4F8AC1020F0E0404F
:1040D0000843A8657CE5A86A00F00300032819D10D
:1040E0000126B0462068C00140F17C80606C032846
:1040F00076D8DFE800F006027006E86A40F4003087
:10410000E86230006DD1E86C616C800841EA8000A3
:10411000E86467E0286820F08060286001F078FAA1
:1041200006462868000106D501F072FA801B0328B4
:10413000F7D30326D5E7A86A616820F47C3040EA0B
:104140000130A862E168A068491E490201F47E417D
:10415000401EC0F3080008432169491E090401F408
:10416000FE0108436169491E090601F0FE4108434A
:10417000A863E86AA16920F0C0000843E862E86A21
:10418000E16920F020000843E862E86A20F01000AE
:10419000E862E86B216A6FF3CF0040EAC100E86390
:1041A000E86A40F01000E862E86A40F48010E862D3
:1041B000286840F08060286001F02AFA06462868E6
:1041C000000106D401F024FA801B0328F7D303264C
:1041D00087E7002611E5A86A00F00300032819D13B
:1041E0000126B0462068400240F1A280D5F80004C4
:1041F00040F48070C5F8000401F00AFA4FEA0007A5
:10420000D5F80004C00566D401F002FAC01B652889
:10421000F6D38BE0286820F08060286001F0F8F980
:1042200006462868000106D501F0F2F9801B032834
:10423000F7D30326D5E7A86A616820F47C3040EA0A
:104240000130A862E168A068491E490201F47E417C
:10425000401EC0F3080008432169491E090401F407
:10426000FE0108436169491E090601F0FE41084349
:10427000A863E86AA16920F0C0000843E862E86A20
:10428000E16920F020000843E862E86A20F01000AD
:10429000E862E86B216A6FF3CF0040EAC100E8638F
:1042A000E86A40F01000E862E86A40F40010E86252
:1042B000286840F08060286001F0AAF90646286866
:1042C000000106D401F0A4F9801B0328F7D30326CC
:1042D00087E7002617E7300029D1286FD4F8B010FF
:1042E00000F4407001F4407188420BD0286F296FB0
:1042F00041F480312967296F20F4407021F4803126
:1043000029672867D4F8B000B0F5807F40F0DF80DF
:1043100001F07EF9074641F28939286F800700F1E4
:10432000D68001F075F9C01B4845F6D30326B04688
:104330002078C00717D5A06F002800F0AB810828AF
:1043400009D0102800F0418118281CBF20282828F7
:1043500000F0A08105E0A86A00F00300032840F007
:10436000D3800126B0462078800712D5606F0528DB
:104370000DD8DFE810F05F020600FA015F025F026D
:104380005F02A86A00F00300032840F08D81012637
:10439000B0462078400713D5D4F8900005280DD8F2
:1043A000DFE810F018030600B3021803180318031F
:1043B000A86A00F00300032840F046820126B046B8
:1043C000207880061DD5D4F88C00002800F0D38317
:1043D000B0F1805F0DD0B0F1005F00F06783B0F105
:1043E000405F1CBFB0F1804FB0F1A04F00F0C3831D
:1043F00005E0A86A00F00300032840F0F6820126D9
:10440000B046207840061DD5D4F89800002800F06A
:104410008684B0F5806F0DD0B0F5006F00F0188481
:10442000B0F5406F1CBFB0F5805FB0F5A05F00F045
:10443000768405E0A86A00F00300032840F0A68314
:104440000126B046207800061DD5D4F89C0000282F
:1044500000F03B85B0F5005F0DD0B0F5804F00F067
:10446000CD84B0F5C04F1CBFB0F5004FB0F5204F64
:1044700000F02B8505E0A86A00F00300032840F057
:104480005A840126B0462078000740F17E85D4F892
:104490008000B0F5805F40F07385A86A00F00300EB
:1044A000032800F06A85286820F08050286001F019
:1044B000AFF807462868800040F1138501F0A8F89E
:1044C000C01B0328F6D34FF0010800F05EBDD4F8FE
:1044D000B00000F44071B1F5407F09D12969034A69
:1044E00002EA101021F47C51084304E0CFFFFF00E2
:1044F000286920F47C502861286FD4F8B010C1F3EB
:104500000B010843286713E7286820F080602860C3
:1045100001F07EF806462868000106D501F078F81B
:10452000801B0328F7D303261CE7A86A616820F4E0
:104530007C3040EA0130A862E168A068491E490267
:1045400001F47E41401EC0F3080008432169491E62
:10455000090401F4FE0108436169491E090601F0DE
:10456000FE410843A863E86AA16920F0C00008433F
:10457000E862E86AE16920F020000843E862E86A3E
:1045800020F01000E862E86B216A6FF3CF0040EA88
:10459000C100E863E86A40F01000E862E86A40F4AD
:1045A0008010E862286840F08060286001F030F8F0
:1045B00006462868000106D401F02AF8801B03286B
:1045C000F7D30326CEE6002667E0A86A00F00300D2
:1045D00003283FF4C6AE286820F08050286001F020
:1045E00017F806462868800006D501F011F8801BF0
:1045F0000328F7D30326B5E6A86A616A20F07C7029
:1046000040EA0150A862E16AA06A491E490201F429
:104610007E41401EC0F308000843216B491E090477
:1046200001F4FE010843616B491E090601F0FE41D9
:1046300008432864E86AA16B20F440600843E862FC
:10464000E86AE16B20F400700843E862E86A20F44D
:104650008070E862686C216C6FF3CF0040EAC100A3
:104660006864E86A40F48070E862E86A40F4000038
:10467000E862286840F08050286000F0C9FF0646D4
:10468000286880009FD400F0C3FF801B0328F7D365
:10469000032667E630007FF465AE686DA16F20F0F9
:1046A0003800084368655EE6286820F0806028606E
:1046B00000F0AEFF06462868000106D500F0A8FF0E
:1046C000801B0328F7D3032662E6A86A616820F4FA
:1046D0007C3040EA0130A862E168A068491E4902C6
:1046E00001F47E41401EC0F3080008432169491EC1
:1046F000090401F4FE0108436169491E090601F03D
:10470000FE410843A863E86AA16920F0C00008439D
:10471000E862E86AE16920F020000843E862E86A9C
:1047200020F01000E862E86B216A6FF3CF0040EAE6
:10473000C100E863E86A40F01000E862E86A40F40B
:104740008010E862286840F08060286000F060FF18
:1047500006462868000106D400F05AFF801B032893
:10476000F7D3032614E6002667E0A86A00F00300EA
:1047700003283FF40CAE286820F08050286000F039
:1047800047FF06462868800006D500F041FF801BE1
:104790000328F7D30326FBE5A86A616A20F07C7042
:1047A00040EA0150A862E16AA06A491E490201F488
:1047B0007E41401EC0F308000843216B491E0904D6
:1047C00001F4FE010843616B491E090601F0FE4138
:1047D00008432864E86AA16B20F440600843E8625B
:1047E000E86AE16B20F400700843E862E86A20F4AC
:1047F0008070E862686C216C6FF3CF0040EAC10002
:104800006864E86A40F48070E862E86A40F4000096
:10481000E862286840F08050286000F0F9FE064603
:10482000286880009FD400F0F3FE801B0328F7D394
:104830000326ADE530007FF4ABAD686D616FC00855
:1048400041EAC0006865A4E5286820F0806028601F
:1048500000F0DEFE06462868000106D500F0D8FE0E
:10486000801B0328F7D30326A9E5A86A616820F412
:104870007C3040EA0130A862E168A068491E490224
:1048800001F47E41401EC0F3080008432169491E1F
:10489000090401F4FE0108436169491E090601F09B
:1048A000FE410843A863E86AA16920F0C0000843FC
:1048B000E862E86AE16920F020000843E862E86AFB
:1048C00020F01000E862E86B216A6FF3CF0040EA45
:1048D000C100E863E86A40F01000E862E86A40F46A
:1048E0008010E862286840F08060286000F090FE48
:1048F00006462868000106D400F08AFE801B0328C3
:10490000F7D303265BE5002667E0A86A00F0030002
:1049100003283FF453AD286820F08050286000F051
:1049200077FE06462868800006D500F071FE801BE1
:104930000328F7D3032642E5A86A616A20F07C7059
:1049400040EA0150A862E16AA06A491E490201F4E6
:104950007E41401EC0F308000843216B491E090434
:1049600001F4FE010843616B491E090601F0FE4196
:1049700008432864E86AA16B20F440600843E862B9
:10498000E86AE16B20F400700843E862E86A20F40A
:104990008070E862686C216C6FF3CF0040EAC10060
:1049A0006864E86A40F48070E862E86A40F40000F5
:1049B000E862286840F08050286000F029FE064632
:1049C000286880009FD400F023FE801B0328F7D3C3
:1049D0000326F4E430007FF4F2ACA86DD4F8901014
:1049E000C00841EAC000A865EAE4286820F08060B9
:1049F000286000F00DFE06462868000106D500F08C
:104A000007FE801B0328F7D30326F9E4A86A616830
:104A100020F47C3040EA0130A862E168A068491EB9
:104A2000490201F47E41401EC0F308000843216999
:104A3000491E090401F4FE0108436169491E090683
:104A400001F0FE410843A863E86AA16920F0C000B4
:104A50000843E862E86AE16920F020000843E86260
:104A6000E86A20F01000E862E86B216A6FF3CF007B
:104A700040EAC100E863E86A40F01000E862E86AD2
:104A800040F40020E862286840F08060286000F070
:104A9000BFFD06462868000106D400F0B9FD801B62
:104AA0000328F7D30326ABE4002667E0A86A00F0EA
:104AB000030003283FF4A3AC286820F0805028604E
:104AC00000F0A6FD06462868800006D500F0A0FD8F
:104AD000801B0328F7D3032692E4A86A616A20F0BA
:104AE0007C7040EA0150A862E16AA06A491E49024E
:104AF00001F47E41401EC0F308000843216B491EAB
:104B0000090401F4FE010843616B491E090601F026
:104B1000FE4108432864E86AA16B20F44060084322
:104B2000E862E86AE16B20F400700843E862E86A32
:104B300020F48070E862686C216C6FF3CF0040EA6B
:104B4000C1006864E86A40F48070E862E86A40F096
:104B50008070E862286840F08050286000F058FDBE
:104B60000646286880009FD400F052FD801B032871
:104B7000F7D3032644E430007FF442AC686DD4F8E8
:104B80008C1020F0E040084368653AE4286820F083
:104B90008060286000F03CFD06462868000106D5CC
:104BA00000F036FD801B0328F7D3032649E4A86AEA
:104BB000616820F47C3040EA0130A862E168A068B6
:104BC000491E490201F47E41401EC0F3080008431B
:104BD0002169491E090401F4FE0108436169491E67
:104BE000090601F0FE410843A863E86AA16920F0C4
:104BF000C0000843E862E86AE16920F02000084349
:104C0000E862E86A20F01000E862E86B216A6FF35E
:104C1000CF0040EAC100E863E86A40F01000E862B3
:104C2000E86A40F40020E862286840F0806028606C
:104C300000F0EEFC06462868000107D400F0E8FC0E
:104C4000801B0328F7D30326FFF7FBBB002669E090
:104C5000A86A00F0030003283FF4F2AB286820F0B4
:104C60008050286000F0D4FC06462868800007D5F4
:104C700000F0CEFC801B0328F7D30326FFF7E1BB2F
:104C8000A86A616A20F07C7040EA0150A862E16A7B
:104C9000A06A491E490201F47E41401EC0F308008B
:104CA0000843216B491E090401F4FE010843616BAE
:104CB000491E090601F0FE4108432864E86AA16B19
:104CC00020F440600843E862E86AE16B20F4007079
:104CD0000843E862E86A20F48070E862686C216C3E
:104CE0006FF3CF0040EAC1006864E86A40F4807066
:104CF000E862E86A40F08070E862286840F080501E
:104D0000286000F085FC0646286880009ED400F0EC
:104D10007FFC801B0328F7D30326FFF792BB3000EC
:104D20007FF48FABA86DD4F8981020F4E0500843BE
:104D3000A865FFF787BB286820F08060286000F036
:104D400067FC06462868000107D500F061FC801B5F
:104D50000328F7D30326FFF795BBA86A616820F400
:104D60007C3040EA0130A862E168A068491E49022F
:104D700001F47E41401EC0F3080008432169491E2A
:104D8000090401F4FE0108436169491E090601F0A6
:104D9000FE410843A863E86AA16920F0C000084307
:104DA000E862E86AE16920F020000843E862E86A06
:104DB00020F01000E862E86B216A6FF3CF0040EA50
:104DC000C100E863E86A40F01000E862E86A40F475
:104DD0000020E862286840F08060286000F018FC3D
:104DE00006462868000107D400F012FC801B032847
:104DF000F7D30326FFF746BB002669E0A86A00F058
:104E0000030003283FF43DAB286820F08050286061
:104E100000F0FEFB06462868800007D500F0F8FB8E
:104E2000801B0328F7D30326FFF72CBBA86A616A0F
:104E300020F07C7040EA0150A862E16AA06A491E35
:104E4000490201F47E41401EC0F308000843216B73
:104E5000491E090401F4FE010843616B491E09065D
:104E600001F0FE4108432864E86AA16B20F4406029
:104E70000843E862E86AE16B20F400700843E862E6
:104E8000E86A20F48070E862686C216C6FF3CF00F0
:104E900040EAC1006864E86A40F48070E862E86A49
:104EA00040F08070E862286840F08050286000F090
:104EB000AFFB0646286880009ED400F0A9FB801B4B
:104EC0000328F7D30326FFF7DDBA30007FF4DAAA10
:104ED000A86DD4F89C1020F460400843A865FFF743
:104EE000D2BAA86A616A20F07C7040EA0150A862D8
:104EF000E16AA06A491E490201F47E41401EC0F3E6
:104F000008000843216B491E090401F4FE0108430F
:104F1000616B491E090601F0FE4108432864E86AF6
:104F2000A16B20F440600843E862E86AE16B20F47A
:104F300000700843E862E86A20F48070E862686CF8
:104F4000216C6FF3CF0040EAC1006864E86A40F466
:104F50008070E862E86A40F08070E862286840F09B
:104F60008050286000F054FB0746286880000CD46D
:104F700000F04EFBC01B0328F7D34FF0010804E0FC
:104F8000696D21F44051084368652078C0066FD5EB
:104F9000D4F89400B0F5807F65D1A86A00F00300D2
:104FA00003285DD0286820F08050286000F030FB96
:104FB00007462868800007D500F02AFBC01B03289D
:104FC000F7D34FF0010853E0A86A616A20F07C70C3
:104FD00040EA0150A862E16AA06A491E490201F450
:104FE0007E41401EC0F308000843216B491E09049E
:104FF00001F4FE010843616B491E090601F0FE4100
:1050000008432864E86AA16B20F440600843E86222
:10501000E86AE16B20F400700843E862E86A20F473
:105020008070E862686C216C6FF3CF0040EAC100C9
:105030006864E86A40F48070E862E86A40F0807072
:10504000E862286840F08050286000F0E1FA0746E6
:10505000286880000CD400F0DBFAC01B0328F7D3CB
:105060004FF0010804E0A96D21F440710843A865E0
:105070002068000312D5D4F8A00040B1B0F5803FFD
:1050800000F08D80B0F5003F00F0EE8004E0A86AEB
:1050900000F00300032821D10126B0462068400318
:1050A00040F1F480D4F88400B0F5801F07D0B0F54B
:1050B000001F00F0E480B0F5401F04D0E4E0E86A8F
:1050C00040F40030E862300040F0DF80686DD4F8D2
:1050D000841020F4401008436865D7E0286820F069
:1050E0008060286000F094FA06462868000106D522
:1050F00000F08EFA801B0328F7D30326CDE7A86AB9
:10510000616820F47C3040EA0130A862E168A06860
:10511000491E490201F47E41401EC0F308000843C5
:105120002169491E090401F4FE0108436169491E11
:10513000090601F0FE410843A863E86AA16920F06E
:10514000C0000843E862E86AE16920F020000843F3
:10515000E862E86A20F01000E862E86B216A6FF309
:10516000CF0040EAC100E863E86A40F01000E8625E
:10517000E86A40F40020E862286840F08060286017
:1051800000F046FA06462868000106D400F040FA0E
:10519000801B0328F7D303267FE7002667E0A86A71
:1051A00000F0030003283FF477AF286820F0805018
:1051B000286000F02DFA06462868800006D500F029
:1051C00027FA801B0328F7D3032666E7A86A616ADB
:1051D00020F07C7040EA0150A862E16AA06A491E92
:1051E000490201F47E41401EC0F308000843216BD0
:1051F000491E090401F4FE010843616B491E0906BA
:1052000001F0FE4108432864E86AA16B20F4406085
:105210000843E862E86AE16B20F400700843E86242
:10522000E86A20F48070E862686C216C6FF3CF004C
:1052300040EAC1006864E86A40F48070E862E86AA5
:1052400040F08070E862286840F08050286000F0EC
:10525000DFF90646286880009FD400F0D9F9801B4A
:105260000328F7D3032618E730007FF416AFA86DA4
:10527000D4F8A01020F440300843A8650EE7A86ACF
:1052800000F0030003282FD10126B0462068C00398
:105290000FD5E06C28B1B0F5803F00F08680012684
:1052A00006E0E86A40F40030E862300000F0E48094
:1052B000B0462068800040F13481A86A00F0030005
:1052C000032800F02C81286820F08050286000F02E
:1052D0009FF907462868800040F1D58000F098F9D2
:1052E000C01B0328F6D31AE1286820F080502860FC
:1052F00000F08EF906462868800006D500F088F98F
:10530000801B0328F7D30326BFE7A86A616A20F051
:105310007C7040EA0150A862E16AA06A491E490215
:1053200001F47E41401EC0F308000843216B491E72
:10533000090401F4FE010843616B491E090601F0EE
:10534000FE4108432864E86AA16B20F440600843EA
:10535000E862E86AE16B20F400700843E862E86AFA
:1053600020F48070E862686C216C6FF3CF0040EA33
:10537000C1006864E86A40F48070E862E86A40F45A
:105380000000E862286840F08050286000F040F992
:1053900006462868800006D400F03AF9801B0328EE
:1053A000F7D3032671E7002690E6A86A00F0030011
:1053B000032801D101267BE7286820F0806028605F
:1053C00000F026F906462868000106D500F020F90D
:1053D000801B0328F7D303266AE7A86A616820F4D4
:1053E0007C3040EA0130A862E168A068491E4902A9
:1053F00001F47E41401EC0F3080008432169491EA4
:10540000090401F4FE0108436169491E090601F01F
:10541000FE410843A863E86AA16920F0C000084380
:10542000E862E86AE16920F020000843E862E86A7F
:1054300020F01000E862E86B216A6FF3CF0040EAC9
:10544000C100E863E86A40F01000E862E86A40F4EE
:105450000010E862286840F08060286000F0D8F80A
:1054600006462868000106D400F0D2F8801B032805
:10547000F7D303261CE70026E86CE16C20F48030AB
:105480000843E86415E7A86A616A20F07C7040EA86
:105490000150A862E16AA06A491E490201F47E41F6
:1054A000401EC0F308000843216B491E090401F4A3
:1054B000FE010843616B491E090601F0FE410843E5
:1054C0002864E86AA16B20F440600843E862E86A57
:1054D000E16B20F400700843E862E86A20F4807011
:1054E000E862686C216C6FF3CF0040EAC100686429
:1054F000E86A40F48070E862E86A40F08070E86230
:10550000286840F08050286000F082F8074628683C
:10551000800006D400F07CF8C01B0328F7D34FF0BE
:105520000108206880031AD5E06F68B1B0F5807F6C
:1055300006D0B0F5007F18BFB0F5407F04D00CE076
:10554000E86A40F40030E862300007D1686DE16F2E
:1055500020F440700843686501E00126B0462068E9
:10556000C00205D5286D216F20F000400843286552
:105570002068C00006D52869D4F8B41020F4804013
:10558000084328612068800205D5286DA16E20F0AF
:105590008070084328652068400008D5286920F4F9
:1055A000004028612869D4F8B810084328612068B1
:1055B000002805D5E86C216D20F040500843E864D0
:1055C000B8F101008041C043C00F01B0BDE8F083D5
:1055D00000B581B000F0C0F9094B0A4A1B680A49BE
:1055E000C3F30323D25C01B002F01F02D040086075
:1055F000086800BD05490A6810430860704700004C
:105600001844025834E804080C030020A04402584F
:1056100001484068704700BF000300202DE9F043B7
:10562000040081B0884600F0B080DFF89C643068E8
:1056300000F00F0040450AD23068000948EA001027
:105640003060306800F00F00404540F09E802078C8
:10565000DFF8687440070AD52069B96901F0700164
:10566000814204D2B96921F070010843B861207801
:1056700000070AD56069F96901F07001814204D21E
:10568000F96921F070010843F8612078C0060AD555
:10569000A069F96901F4E061814204D2F96921F459
:1056A000E0610843F861207880060AD5E069396A2C
:1056B00001F07001814204D2396A21F0700108437F
:1056C0003862207880070AD5E068B96901F00F01D7
:1056D000814204D2B969090940EA0110B861207811
:1056E000C00735D5B869A16820F470600843B86177
:1056F0006068022802D13968890308E0032802D1D2
:105700003968890103E00128396805D1C90505D444
:10571000012001B0BDE8F083490736D5396941F26F
:105720008939C90840EAC1003861FFF771FF0546B1
:105730003869616800F03800B0EBC10F08D0FFF79E
:1057400067FF401B4845F3D3032001B0BDE8F08359
:10575000207880070AD5E068B96901F00F01884216
:1057600004D2B969090940EA0110B861306800F053
:105770000F0080450DD23068000948EA0010306003
:10578000306800F00F00404503D0012001B0BDE8B3
:10579000F083207840070AD52069B96901F07001CB
:1057A000884204D2B96921F070010843B8612078B9
:1057B00000070AD56069F96901F07001884204D2D6
:1057C000F96921F070010843F8612078C0060AD514
:1057D000A069F96901F4E061884204D2F96921F411
:1057E000E0610843F861207880060AD5E069396AEB
:1057F00001F07001884204D2396A21F07001084337
:105800003862386910F0380000F08880102800F005
:105810008280182840F08C80B86AB96AFA6A7B6B7B
:1058200002F00102C1F305110029C3F3CC0313FBFD
:1058300002F200EE102AB8EE400A6AD010F003001F
:1058400008D002283DD100EE901AF8EE600A9FEDD4
:105850008E1A3CE03868DFED8D0A20EE200A00EE5B
:10586000901A8006F8EE600A19D53868DFF85412ED
:10587000C0F3C100C140386B01EE101AB8EE411AF6
:10588000C1EE200AC0F3080001EE100AB8EE411A7A
:1058900031EE000AB7EE001A30EE010A28E0386B4C
:1058A0009FED841AC1EE200AC0F3080001EE100A31
:1058B000B8EE411A31EE000AB7EE001A30EE010AD6
:1058C00016E000EE901AF8EE600A9FED7B1A386B36
:1058D000DFED6E1AC1EE200AC0F3080001EE100AD7
:1058E000B8EE411A00EE211AB7EE000A31EE000AB6
:1058F000386B20EE800AC0F34620401C00EE900A70
:10590000F8EE600A80EE200ABCEEC00A10EE100A23
:1059100010E000200EE0DFF8B4010BE03968DFF89A
:10592000A401890606D53968C1F3C101C84001E068
:10593000DFF89C01BA69DFF89C11C2F30322895C8D
:1059400001B001F01F01C840DFF8741108600F209A
:10595000BDE8F04300F018BB5849086910F0380062
:1059600004D010280CD018280CD08BE00A685548B9
:10597000920640F188800968C1F3C101C8407047B0
:1059800052487047886A8A6ACB6AD1F834C003F0FB
:105990000103C2F30512002ACCF3CC0C1CFB03F369
:1059A00000EE103AB8EE400A6AD010F0030002D0C0
:1059B000022836D03CE00868DFED340A20EE200AE9
:1059C00000EE902A8006F8EE600A18D508683D4A75
:1059D000C0F3C100C240086B01EE102AB8EE411AB4
:1059E000C1EE200AC0F3080001EE100AB8EE411A19
:1059F00031EE000AB7EE001A30EE010A2FE0086B14
:105A00009FED2C1AC1EE200AC0F3080001EE100A27
:105A1000B8EE411A31EE000AB7EE001A30EE010A74
:105A20001DE000EE902AF8EE600A9FED171A05E0DF
:105A300000EE902AF8EE600A9FED1F1A086BDFED6A
:105A4000131AC1EE200AC0F3080001EE100AB8EEE6
:105A5000411A00EE211AB7EE000A31EE000A086B77
:105A600020EE800AC0F34620401C00EE900AF8EEBB
:105A7000600A80EE200ABCEEC00A10EE100A7047E1
:105A8000002070471248704720BCBE4B0000003910
:105A900000B581B0FFF79CFD0F4A0E49126802F075
:105AA0000F02895C01B001F01F01C8400B4908607A
:105AB00000BD00000024744C0024744A00440258C5
:105AC0000C0300200090D0030020005240787D019C
:105AD00000093D0034E8040818440258100300206F
