:020000040800F2
:1000000018040020651C0008D91B0008DB1B000831
:10001000DD1B0008DF1B0008E11B000800000000DA
:10002000000000000000000000000000E31B0008CA
:10003000E51B000800000000E71B0008E91B0008A2
:10004000811C0008851C0008891C00088D1C000804
:10005000911C0008951C0008991C00089D1C0008B4
:10006000A11C0008A51C0008A91C0008AD1C000864
:10007000B11C0008B51C0008B91C0008BD1C000814
:10008000C11C0008C51C0008C91C0008CD1C0008C4
:10009000D11C0008D51C0008D91C0008DD1C000874
:1000A000E11C0008E51C0008E91C0008ED1C000824
:1000B000F11C0008F51C0008F91C0008FD1C0008D4
:1000C000011D0008051D0008091D00080D1D000880
:1000D000111D0008151D0008191D00081D1D000830
:1000E000211D0008251D0008291D00082D1D0008E0
:1000F000311D0008351D0008391D00083D1D000890
:10010000411D0008451D0008491D00084D1D00083F
:10011000511D0008551D0008591D00085D1D0008EF
:10012000611D0008651D0008691D00086D1D00089F
:10013000ED1B0008711D0008751D0008791D0008E1
:100140007D1D0008811D0008851D0008891D00080F
:100150008D1D0008911D0008951D0008991D0008BF
:100160009D1D0008A11D0008A51D0008A91D00086F
:10017000AD1D0008B11D0008B51D000800000000FD
:10018000B91D0008BD1D0008C11D0008C51D0008DF
:10019000C91D0008CD1D0008D11D0008D51D00088F
:1001A000D91D0008DD1D0008E11D0008E51D00083F
:1001B000E91D0008ED1D0008F11D0008F51D0008EF
:1001C000F91D0008FD1D0008011E0008051E00089D
:1001D000091E00080D1E0008111E0008151E00084B
:1001E000191E00081D1E0008211E0008251E0008FB
:1001F000291E00082D1E00082DE9F04782B0044694
:1002000020780027B846DFF84C55C0070AD5A86803
:1002100020F40000A860A868616B0843A860606BC8
:1002200000B901272068DFF8306500030ED5B068FB
:10023000E16B20F440100843B060E06BB0F5801F24
:1002400008BF012702D008B94FF001082068C0029A
:100250000ED5B068216C20F440000843B060206CDB
:10026000B0F5800F08BF012702D008B94FF0010890
:100270002068C10148BF012780065DD5286CDFF8E2
:10028000DC9440F080502864286C00F0805000908E
:100290000098D9F8000040F48070C9F8000000F020
:1002A00077FA8246D9F80000C00506D400F070FA4B
:1002B000A0EB0A006528F5D3C6E1286F10F4407062
:1002C0001EBF216B01F4407188421DD0286F296F39
:1002D00041F480312967296F20F4407021F4803186
:1002E00029672867286FC0070ED500F051FA8246AB
:1002F000286F800708D400F04BFAA0EB0A0041F207
:1003000089318842F4D39FE1206B00F44071B1F54C
:10031000407F07D1A968DFF84824104021F4F81184
:10032000084302E0A86820F4F810A860286F216B49
:10033000C1F30B01084328672078C00607D5B068D1
:1003400020F08070B060B068A16B0843B060206896
:10035000400405D5F068616E20F440300843F06039
:100360002068000405D5F068A16E20F44020084301
:10037000F0602068C00305D5F068E16E20F44010FD
:100380000843F0602068800305D5F068216F20F4F1
:1003900040000843F0602078400605D5F068616CA5
:1003A000800841EA8000F0602078000605D5F068FA
:1003B000A16C20F00C000843F0602068C00505D552
:1003C000F068E16C20F030000843F06020688005A0
:1003D00005D5F068216D20F0C0000843F06020686A
:1003E000400505D5F068616D20F440700843F06069
:1003F0002068000505D5F068A16D20F44060084331
:10040000F0602068C00405D5F068E16D20F440502C
:100410000843F0602068800405D5F068216E20F460
:1004200040400843F0602068400205D5F068A16FA5
:1004300020F080600843F060206880020BD5F068EF
:10044000E16F20F000600843F060E06FB0F1006FF2
:1004500008BF4FF001082068010748BF4FF00108AE
:10046000400305D5F068616F20F040700843F060EC
:100470002068000206D5F068D4F8801020F0805083
:100480000843F060216804F18400490105D5F16852
:10049000026821F000511143F1602168090105D57E
:1004A000B168426821F000711143B1602168C90050
:1004B00005D5B168806821F080610843B0601FB93C
:1004C0002068B0F1007F5ED1286820F0806000F0E5
:1004D000D8F807462868000105D500F059F9C01B77
:1004E0006528F7D3B0E02078C0070AD5606B40B923
:1004F00000F0B5F801F070610843A16840EA0170AE
:1005000030602068010303D5E16BB1F5801F05D091
:10051000C00210D5206CB0F5800F0CD100F09FF810
:10052000E26800F096F83060B068616A4009491EE0
:1005300041EA4010B0602068C00106D530683168DB
:100540002369626800F093F83060206880010BD561
:1005500021696068090441EA8010E16840EA0160AD
:10056000A16840EA01703060286840F0806000F0C7
:1005700088F807462868000105D400F009F9C01B77
:100580006528F7D360E0B8F1000F5FD0286820F04D
:10059000805000F076F807462868800005D500F006
:1005A000F7F8C01B6528F7D34EE02068010301D59A
:1005B000E16B19B1C00214D5206C90B970687168F4
:1005C000626900F4403040EA8210A26900F041F80C
:1005D0007060B068A16A20F4F850491E40EA01201A
:1005E000B060206880020AD5E06FB0F1006F06D1DC
:1005F00070687168236A626900F039F87060207869
:10060000000713D570687168626901F4403141EAEE
:10061000821100F070600843E16940EA0170706087
:10062000B068E16A20F440300843B060286840F0C8
:10063000805000F026F804462868800006D400F0B8
:10064000A7F8001B6528F7D3032000E00020BDE8D1
:10065000F68701F0E04140EA0260084370473068E5
:100660003168626800F4403040EA821070471B0431
:1006700043EA821200F0706001F0E0411043084349
:100680007047286000F084B801460020B1F5002FC3
:10069000314A70B5334C344D344B1DD1966816F445
:1006A000401609D0B6F5801F0CD0B6F5001F47D014
:1006B000B6F5401F0CD00FE000F05CF854BF2046A8
:1006C00028461FE000F056F854BF2046284629E08F
:1006D0001868400239D53AE0B1F5801F38D19168E9
:1006E00011F4400109D0B1F5800F16D0B1F5000F1B
:1006F00026D0B1F5400F25D070BD00F03BF854BFB7
:100700002046284601F03F01B0FBF1F051685368E4
:1007100000F034F8C2F304210EE000F02BF854BFCF
:100720002046284601F03F01B0FBF1F01168136844
:1007300000F024F802F01F01491CB0FBF1F070BD7D
:100740000B4870BD1868400201D4204670BD284691
:1007500070BD000000380240843802400070004044
:10076000FFFCFF0F0024F40040787D0104380240B4
:100770000080BB0018681968400270479268C3F394
:1007800088135843C1F30361B0FBF1F070470000D8
:1007900001480068704700BFFC2400202DE9F041AB
:1007A00082B0044620784FF00008DFF81C54C007E0
:1007B00047D5A86800F00C00042807D0A86800F00E
:1007C0000C0008280AD16868400207D52868800311
:1007D00037D56068002834D1012041E16068B0F568
:1007E000803F09D008B928680AE0B0F5A02F286832
:1007F00006D140F480202860286840F4803005E06D
:1008000020F480302860286820F480202860606808
:1008100058B1FFF7BDFF07462868800311D4FFF7E2
:10082000B7FFC01B6528F7D317E1FFF7B1FF0746F5
:100830002868800305D5FFF7ABFFC01B6528F7D3F9
:100840000BE12078800718D5A86810F00C0F07D0AE
:10085000A86800F00C00082825D16868400222D45E
:100860002868800702D5E0680128B5D12868216989
:1008700020F0F80040EAC10028602078000743D546
:1008800060690028686F30D040F001006867FFF7AA
:100890007FFF0746686F800736D4FFF779FFC01BDC
:1008A0000328F7D3D9E0E068002828680ED040F08C
:1008B00001002860FFF76CFF074628688007D5D441
:1008C000FFF766FFC01B0328F7D3C6E040084000CF
:1008D0002860FFF75DFF074628688007CDD5FFF742
:1008E00057FFC01B0328F7D3B7E0400840006867F4
:1008F000FFF74EFF0746686F800705D5FFF748FFF3
:10090000C01B0328F7D3A8E0207840075CD5286CEB
:10091000C0000AD4286C4FF0010840F080502864D1
:10092000286C00F0805000900098DFF8A8623068D2
:10093000C0050FD4306840F480703060FFF728FFA6
:1009400007463068C00505D4FFF722FFC01B6528A5
:10095000F7D382E0A068012808D008B9286F09E021
:100960000528286F06D140F004002867286F40F062
:10097000010005E0400840002867286F20F00400CF
:100980002867A06841F2893658B1FFF701FF074692
:10099000286F800711D4FFF7FBFEC01BB042F7D3CE
:1009A0005BE0FFF7F5FE0746286F800705D5FFF7E8
:1009B000EFFEC01BB042F7D34FE0B8F1000F03D0F9
:1009C000286C20F080502864A069002847D0A968CE
:1009D00001F00C0108293FF4FFAE0228286820F03E
:1009E000807028602ED1FFF7D3FE0746286880016B
:1009F00005D5FFF7CDFEC01B0328F7D32DE0E06936
:100A0000216A0843616A40EA8110A16A891EC9030C
:100A1000090C40EA0140E16A40EA0160216B40EACA
:100A200001706860286840F080702860FFF7B0FEB1
:100A300007462868800112D4FFF7AAFEC01B0328CE
:100A4000F7D30AE0FFF7A4FE07462868800106D521
:100A5000FFF79EFEC01B0328F7D3032000E0002011
:100A6000BDE8F6812DE9F84304465B4E30688846C0
:100A700000F00F00404502D200F079F852D1207802
:100A8000514F800705D5B868A16820F0F0000843F1
:100A9000B8602078C0073DD56068012802D1396868
:100AA000890303E00228396802D1890102D439E0C0
:100AB000890737D5B96841F28939890840EA810048
:100AC000B860FFF765FE0546606801280AD1B8687E
:100AD00000F00C0004281DD0FFF75AFE401B4845CB
:100AE000F5D315E002280AD1B86800F00C000828F8
:100AF00010D0FFF74DFE401B4845F5D308E0B8681D
:100B000010F00C0F06D0FFF743FE401B4845F6D30C
:100B100003202AE0306800F00F00804504D200F086
:100B200026F801D0012020E02078400705D5B868DC
:100B3000E16820F4E0500843B8602078000706D54B
:100B4000B868216920F4604040EAC100B86000F054
:100B500018F8BA682149C2F30312895CC8401C49DD
:100B600008600F2000F040F80020BDE8F2833068F4
:100B7000000948EA00103060306800F00F0040457E
:100B800070471748416801F00C01042902D0082978
:100B900002D017E01348704701680268520201F062
:100BA0003F014CBF0F4A094AB2FBF1F102680068ED
:100BB000C2F388125143C0F30140401C4000B1FB16
:100BC000F0F0704701487047003802400024F400FC
:100BD0001000002000700040003C0240EC1A0008A9
:100BE0000438024040787D0110B50446074800688B
:100BF0004FF47A71B0FBF1F000F04DF8002221467D
:100C00004FF0FF3000F01EF8002010BD1000002053
:100C10000901002802D42A4A11547047294A00F0D9
:100C20000F00104400F8041C704727494FF6FF03DB
:100C30000A68000200F4E0601A401043234A10439F
:100C40000860704738B5204B1B68C3F30223C3F11B
:100C50000704052C28BF04241D1D072D34BF0023C5
:100C6000DB1E012505FA04F4641E2140994005FAB3
:100C700003F35B1E1A401143BDE83440C8E701008E
:100C800008D4012200F01F0002FA00F0104A4909BE
:100C900042F821007047401EB0F1807F10B501D3AB
:100CA000012010BD0B4C0F2160604FF0FF30FFF7AB
:100CB000AFFF0020A06007202060002010BD0000D2
:100CC00000E400E018ED00E00CED00E00000FA05A3
:100CD00000E100E010E000E070B50446FFF758FDC9
:100CE00006460CB9012070BD04F1340500202870BF
:100CF0000220687000F0C4F820680168C90708D5B0
:100D0000FFF746FD801B0628F6D32020286203202B
:100D100053E00168DFF80423114062681143A268C0
:100D20001143E26811432269114362691143A269C8
:100D30001143E2691143226A1143626A042A03D112
:100D4000E26A236B1A431143016020684169626AB9
:100D5000C90842EAC101042A08D1A26AA369114361
:100D600093B9002A18BF022A21D017D34161204627
:100D700000F07CF9AA6A3F2191408160002028623E
:100D800001206870002070BDB3F5005F0BD1032A0D
:100D9000ECD8DFE802F00F0C0F03E7E7E26AB2F1EC
:100DA000C07FE3D106E0022A04D9D21EDED1E26A76
:100DB000D201DBD5402028620120687070BD10B5DB
:100DC00008B9012010BD00F134046178022901D175
:100DD000022010BD01680A68520852000A600268C9
:100DE0000021116002685160026891600268D16060
:100DF0000268116102682121516100F037F9A26A8D
:100E00003F2191408160002020626070207010BD01
:100E1000F8B50024054605F134063078776A0128D4
:100E200001D10220F2BD01203070707801281DD15F
:100E3000022070702846346200F008F9B16A3F2041
:100E40008840B8602868016841F016010160286890
:100E5000416941F080014161F06820B12868016872
:100E600041F00801016000F005F801E0347002244F
:100E70002046F2BD2868016841F001010160704719
:100E80002068016849084900016070472DE9F04178
:100E9000044682B0002004F134060090776A62486C
:100EA0004FF4165100683D68B0FBF1F8B16A0820B4
:100EB00000FA01F10D420ED021680A6852070AD5E6
:100EC0000A6822F004020A60B16A8840B860306A99
:100ED00040F001003062B16A51488840054208D0B4
:100EE00021684969090604D5B860306A40F00200FB
:100EF0003062B16A4B488840054208D021680968D1
:100F0000890704D5B860306A40F004003062B16AE5
:100F10001020884005421DD021680968090719D5AD
:100F2000B86020680168490308D5006800030CD543
:100F3000716908000ED0204688470BE00168C9059A
:100F400003D4016821F008010160F16808001CBFAA
:100F500020468847B16A2020884005423DD021685C
:100F60000968C90639D5B860206871780529016813
:100F700018D100F05BF8F068002804BF7069002801
:100F800001D000F05CF8B16A3F208840B8600020D2
:100F9000307001207070F16908003BD02046BDE838
:100FA000FC410847490308D50068000310D43169A3
:100FB000080012D0204688470FE00168C90507D411
:100FC000016821F010010160002030700120707074
:100FD000B16808001CBF20468847306AD0B1306A2B
:100FE000C00710D505207070FFF74AFF0098401C1D
:100FF0008045009003D320680068C007F6D4002025
:10100000307001207070B169080003D02046BDE83F
:10101000FC410847BDE8F381000000003F8010E07C
:1010200001008000040080001000002021F0160163
:1010300001602068416921F08001416170472068AA
:10104000016821F0080101607047000030B50468B4
:10105000256825F48025256063608068402802D1DA
:10106000A260E16030BDA160E26030BD016818237C
:1010700001F0FF02890A103A8902B2FBF3F2042A56
:101080000FF210039B5C28BF091DC36581650846EC
:101090007047000000061016000610162DE9F041FA
:1010A000002604460027B0460CB90120C3E004F135
:1010B0007C05687818B92870204600F0B9F902203C
:1010C000687000F0BAF8E068012803D0022808BF71
:1010D000202700E01027A1684FF40060012905D007
:1010E0000AD3032905D038BF804605E04FF4806855
:1010F00002E0804647F001072068DFF87422DFF83D
:101100007412904216BF8842DFF86C02DFF86C025E
:101110000760E06920B323680020934212BF8B422E
:101120004FF40020FFF7B0FA2168DFF85422914213
:1011300019BFDFF8502291424FF48010FFF7A4FA54
:101140000A21E26948435202B0FBF2F00A22B0FBE6
:10115000F2F201FB12002262092824BF501C206217
:1011600060684FF40071002818BF022803D1E06BBB
:10117000012804D002E0E06B012800D10E4620686F
:10118000DFF804220168114001602068016862688C
:10119000236B1A43636B1A43A36B1A433243636A8C
:1011A00048EA02021A4323691A4363691A43236A0D
:1011B00042EA03521143DFF8D421016020684168FC
:1011C0001140416020684168A269A36A1A43E36A3A
:1011D0001A43114341602068DFF8B421816811404F
:1011E000816020688168226C236D521E1A43A36CB3
:1011F0001A43E36C1A43636C5B1E42EA03221143F9
:101200004FF2200281602068C1681140C1602068EF
:10121000C168626DA36D1A43236E42EA0342E36D17
:101220005B1E42EA03221143C16000206860012076
:10123000687000202870BDE8F081204676E001212A
:10124000204658E021680A69104308612068016857
:10125000C90303D4016841F480310160704738B597
:10126000044619B3100021D000F025F821D1287DC3
:1012700001281ED000F024F869680FF251100864AC
:1012800069680FF21510C86369680FF25910C864D5
:1012900069680020086520682B88616E00F11C02D7
:1012A0006868FFF7B5FD18B100202875012032BD30
:1012B00010E0022032BD04F16805687D0128704706
:1012C00001202875002061662A806A80A8611220AA
:1012D00068757047FFF7BAFF0021FFF7B1FF21687B
:1012E0000A69104308612068016841F40031016017
:1012F0000020287532BD012201294168006B08BF1A
:10130000092208280BD142F01000032908BF024629
:1013100009D0012905D1024642F004007047032993
:1013200001D00229F8D142F06000704710B5194988
:10133000036809680722B1FBF2F11C684FF47A7266
:10134000B1FBF2F18A00002124F480341C601346C2
:101350005A1E3BB9D0F8801041F04001C0F880100F
:10136000032103E003681B68DB03F0D4084610BDCB
:10137000045801402458014000580140005C0140DD
:10138000045C0140245C014010C005FFF01FFFFF1A
:101390000080F8FF1000002038B5846B00680068FA
:1013A000C0050BD404F16A050020288000F039F84C
:1013B00000212046FFF79FFF00F00CF8FFE72046D2
:1013C000BDE8324000F0C2B900000000806B00F0C0
:1013D000B5B9000021680A6922EA0000086101200D
:1013E000E874704738B5846B04F16C05686940F0A7
:1013F000800068612868406D01281EBF6868406DE4
:10140000012809D100F00DF82046FFF78FFF0120D9
:1014100068740020A4F86A002046BDE8324000F05D
:10142000B7B92068016821F40031016070470000FD
:1014300070B586B004462068304988425BD1304D93
:101440004FF40066686901A940F4000068616869AA
:1014500000F4000000900098286840F00800286020
:10146000286800F008000090009801960220029081
:1014700000200390032004900A200590214800F0EA
:1014800089F9286840F48000286028681E4D00F41F
:101490008000009000986E614FF0C060686040204E
:1014A000A8600020E8604FF4806028614FF400508D
:1014B000A8614FF48070E8614FF400302862042086
:1014C00068620320A8620020E86228630F48286051
:1014D0002846E566AC63FFF772FC2846FFF7FCFB85
:1014E00008B100F027F9002201213C20FFF7AAFBF8
:1014F0003C20FFF7C4FB06B070BD00BF045C014098
:1015000030380240000C02409C24002070640240ED
:1015100070B594B041F22C0400F0BFF8904800215F
:10152000016000F0BAF88F490A6842F400320A609C
:1015300000F0B3F800220A67BFF34F8FCA6EC2F300
:101540004E33C2F3C90543F6E07606EA431646EA8F
:10155000857606612E46751E002EF4D11D466B1E43
:10156000002DEED1BFF34F8F086840F48030086043
:1015700000F093F800F00AFA7B48016841F08051CE
:101580000160006800F08050009000987748016882
:1015900041F440410160006800F440400090009830
:1015A000012006904FF48030079002200C904FF4F9
:1015B00080000D9019200E904FF4D8700F900220EB
:1015C0001090092011900720129006A8FFF7E6F866
:1015D00000B1FEE700F0EEF900B1FEE70F200721B1
:1015E000019002200290002003904FF4A05004903C
:1015F0004FF48050059001A8FFF734FA00B1FEE7E0
:10160000012000F013FA002000F010FA5848594B5E
:10161000D0E90001584A994208BF904202D000F038
:1016200086F8FEE700F03EF80020544D54490918B2
:10163000098825F81010401CB0F5805FF6D34FF4F0
:10164000805229464F48504EFFF709FE012000F016
:1016500018FAB6F9000010F1010FFAD0B6F900003F
:101660004FF0FF3131800021414A43181219A41C68
:10167000491C1288B1F5006F25F81320F4DB04F53E
:101680000060B0F5343FB6F9000088BF2C2410F19B
:10169000010FDBD000F04BF8FEE7BFF34F8FBFF335
:1016A0006F8F704700B5A5B04FF4801000900020F8
:1016B000109040F2AD1005900220069013200A9081
:1016C0006846FEF799FD10B100F031F8FEE72D48AD
:1016D0002E490160002141608160C160016141616A
:1016E00081614FF4FA41C16100210162416281626E
:1016F000C16204210163C021416300218163C16390
:10170000402101642021416400218164C16401659C
:10171000416581650221C1654FF6FF710166FFF7E2
:10172000BDFC10B100F003F8FEE725B000BD0020BD
:1017300000F09BB980B5FFF7FAFFFEE70068134998
:10174000884202D1002010490880704700680F4984
:10175000884203D14FF400600B49088070470000B5
:1017600050EF00E014ED00E040380240007000400F
:101770000000080824FE7E01524946461804002055
:101780002C0008081824002014000020045C0140EC
:10179000704700002DE9F84F02460023DFF8B881BA
:1017A000DFF8B891DFF8B8A14FF00F0B0C680120FB
:1017B000984000EA040E864540F0C0804D689C00C9
:1017C000022D18BF122D0FD1DD0802EB850C04F09D
:1017D0001C050BFA05F7DCF82060BE430F6907FA19
:1017E00005F53543CCF8205016680F794FEA430CC5
:1017F000032505FA0CF5ED432E4007F0030707FA21
:101800000CF73E4316604E68012E18BF022E03D01F
:10181000112E18BF122E0FD19668CF682E4007FAEE
:101820000CF73E439660566826EA00004E68C6F301
:1018300000169E4030435060D06828408D6805FAFD
:101840000CF52843D0604868C00077D5DAF800006E
:1018500004F00C060BFA06F440F48040CAF80000CD
:10186000DAF8000000F4804000900098980859F8D9
:10187000205025EA04043B4DAA4208BF00252CD085
:10188000394DAA4208BF012527D0384DAA4208BFCA
:10189000022522D0364DAA4208BF03251DD0354D62
:1018A000AA4208BF042518D0334DAA4208BF052517
:1018B00013D0324DAA4208BF06250ED0304DAA42A1
:1018C00008BF072509D02F4DAA4208BF082504D01C
:1018D0002D4DAA420CBF09250A25B5402C4349F8D5
:1018E0002040D8F800406FEA0E0000EA040C4C6873
:1018F000E40348BF4EEA0C0CC8F800C0D8F8044016
:1019000000EA040C4C68A40348BF4EEA0C0CC8F86B
:1019100004C0D8F8084000EA040C4C68E40248BF50
:101920004EEA0C0CC8F808C0D8F80C4020404C68AF
:10193000A40248BF4EEA0000C8F80C005B1C102B44
:10194000FFF434AFBDE8F18F02B90904816170473B
:101950004269514041617047003C014008380140F4
:1019600044380240000002400004024000080240E7
:10197000000C024000100240001402400018024017
:10198000001C0240002002400024024080B50748AD
:10199000016841F4007101600320FFF746F90F2050
:1019A000FFF722F900F004F8002002BD003C0240DD
:1019B0007047000070B582B000F020F840F480302D
:1019C00000F030F806466068C00305D4FEF7E0FE7C
:1019D000801BA842F7D30DE0206840F4003000F0EF
:1019E00021F806466068800306D4FEF7D1FE801B0E
:1019F000A842F7D3032076BD002076BD08480168D1
:101A0000064C40F2E93541F080510160006800F079
:101A100080500090009820687047000000700040DF
:101A2000403802402060FEF7B3BE000000B587B02A
:101A3000DFF860100A6842F400720A600968DFF893
:101A4000582001F400710091009952F8201002EB27
:101A5000800001910121029103910321049180688A
:101A600001A9FFF797FE07B000BDDFF82C30012277
:101A7000FFE753F8201003EB8000806889B2FFF77E
:101A800063BF054A52F8201002EB8000806889B2DB
:101A9000FFF75EBF30380240000000200E480F4ABA
:101AA000016841F4700101600D48016841F00101D5
:101AB00001600021816001681140016009494160B5
:101AC000016821F4802101600021C1604FF00060B5
:101AD000054908607047000088ED00E0FFFFF6FE52
:101AE000003802401030002408ED00E00000000043
:101AF00000000000010203040607080919E050F87D
:101B0000041BCB0744BFA9F101035918121F00237E
:101B1000042A41F8043BF9D25FEA827C0B4604D5E3
:101B20004FF0000CA1F800C09B1CD10744BF00215E
:101B3000197050F8042B002AE1D1704710B450F806
:101B4000041B79B10268436802440830DC0744BFD3
:101B5000A9F10104E31852F8044B43F8044B091FA0
:101B6000F9D1ECE710BC704710B50749794418313A
:101B7000064C7C44163404E00A68081D114488476A
:101B80000146A142F8D110BD2C0000004C0000001D
:101B90004EF68851CEF20001086840F470000860EB
:101BA000BFF34F8FBFF36F8F4FF00070E1EE100A5D
:101BB0007047000049FFFFFFE820000018040020E4
:101BC0000000000079FFFFFF180000008000000007
:101BD00000000020000000007047FEE7FEE7FEE77F
:101BE000FEE770477047704700F006B80148C06EC6
:101BF000FFF74CB91824002002480168491C016015
:101C0000704700BFFC24002000F00BF8002801D032
:101C1000FFF7AAFF0020AFF30080FFF779FC00F088
:101C200002F80120704700F001B80000074638466E
:101C300000F002F8FBE7000080B5AFF30080024A35
:101C400011001820ABBEFBE72600020000200000B8
:101C50002000000000240240002402400024F40080
:101C6000FFFF000001488047014800479D1A000817
:101C7000751C0008AFF30080FFF78AFFFFF7C4FF71
:101C8000FFF7FEBFFFF7FEBFFFF7FEBFFFF7FEBF88
:101C9000FFF7FEBFFFF7FEBFFFF7FEBFFFF7FEBF78
:101CA000FFF7FEBFFFF7FEBFFFF7FEBFFFF7FEBF68
:101CB000FFF7FEBFFFF7FEBFFFF7FEBFFFF7FEBF58
:101CC000FFF7FEBFFFF7FEBFFFF7FEBFFFF7FEBF48
:101CD000FFF7FEBFFFF7FEBFFFF7FEBFFFF7FEBF38
:101CE000FFF7FEBFFFF7FEBFFFF7FEBFFFF7FEBF28
:101CF000FFF7FEBFFFF7FEBFFFF7FEBFFFF7FEBF18
:101D0000FFF7FEBFFFF7FEBFFFF7FEBFFFF7FEBF07
:101D1000FFF7FEBFFFF7FEBFFFF7FEBFFFF7FEBFF7
:101D2000FFF7FEBFFFF7FEBFFFF7FEBFFFF7FEBFE7
:101D3000FFF7FEBFFFF7FEBFFFF7FEBFFFF7FEBFD7
:101D4000FFF7FEBFFFF7FEBFFFF7FEBFFFF7FEBFC7
:101D5000FFF7FEBFFFF7FEBFFFF7FEBFFFF7FEBFB7
:101D6000FFF7FEBFFFF7FEBFFFF7FEBFFFF7FEBFA7
:101D7000FFF7FEBFFFF7FEBFFFF7FEBFFFF7FEBF97
:101D8000FFF7FEBFFFF7FEBFFFF7FEBFFFF7FEBF87
:101D9000FFF7FEBFFFF7FEBFFFF7FEBFFFF7FEBF77
:101DA000FFF7FEBFFFF7FEBFFFF7FEBFFFF7FEBF67
:101DB000FFF7FEBFFFF7FEBFFFF7FEBFFFF7FEBF57
:101DC000FFF7FEBFFFF7FEBFFFF7FEBFFFF7FEBF47
:101DD000FFF7FEBFFFF7FEBFFFF7FEBFFFF7FEBF37
:101DE000FFF7FEBFFFF7FEBFFFF7FEBFFFF7FEBF27
:101DF000FFF7FEBFFFF7FEBFFFF7FEBFFFF7FEBF17
:101E0000FFF7FEBFFFF7FEBFFFF7FEBFFFF7FEBF06
:101E1000FFF7FEBFFFF7FEBFFFF7FEBFFFF7FEBFF6
:101E2000FFF7FEBFFFF7FEBFFFF7FEBFFFF7FEBFE6
:0400000508001C755E
:00000001FF
